:100000000C9472020C94B9020C94B9020C94B902CB
:100010000C94B9020C94B9020C94B9020C94B90274
:100020000C94B9020C94B9020C9443200C94152141
:100030000C94B21A0C94B9020C94B9020C94B90243
:100040000C94B9020C94B9020C94B9020C94B90244
:100050000C94B9020C940B1B0C94B9020C94B902C9
:100060000C94B9020C94B9020C94B9020C94B90224
:100070000C94B9020C94B9020C94B9020C94B90214
:100080000C94B9020C94B9020C94B9020C94B90204
:100090000C94B9020C94B9020C94B9020C94B902F4
:1000A0000C94B9020C94B9020C94B902E510E51055
:1000B0001711171164118211961296128D112612C2
:1000C0003712371236133613481348133F134813A9
:1000D0004813481336133613441348134813441374
:1000E0008221A921A122A921A122F5211822A12240
:1000F0006F227E224B4C3A206B633A2030782530B9
:1001000034582C20636F6C3A2025752C20726F7741
:100110003A2025752C20707265737365643A20252A
:10012000622C2074696D653A2025752C20696E74E7
:100130006572727570743A2025622C20636F756E3B
:10014000743A2025750A002B0014001A00080015C7
:100150000017001C0018000C00120013002A0016E3
:100160005C04001600070009000A000B000D000ED9
:10017000000F0033003400E1001D001B00060019D1
:1001800000050011001000360037003800DA5CE08E
:10019000000000E300F65C01512A002C000251F738
:1001A0005CE4000000AE0035021E021F02200221A6
:1001B000022202230224022502260227024C00AA60
:1001C000000000000000000000000000002D022ED2
:1001D000022F0230023102E100C65CC75CC85C003D
:1001E00000000000000000000000000000DA5CE0F9
:1001F0000000008100800001002A002C0001004A5C
:10020000004D000000005C165C1E001F0020002155
:10021000002200230024002500260027002A0029B0
:10022000003A003B003C003D003E003F00560067A6
:10023000002F0030003100E1004000410042004347
:1002400000440045005000510052004F00DA5CE0CD
:10025000000000E300F65C01002A002C0001004BC6
:10026000004E000000E30044454255473A206469CF
:100270007361626C65642E0A0044454255473A201A
:10028000656E61626C65642E0A000A0025303136A5
:1002900062003A200025303258000A722F63203065
:1002A0003132333435363738394142434445460AD2
:1002B00000290A002575002F002575005D280025FE
:1002C00064002000256400200025640020002564CF
:1002D000007C0025303258006D6F7573656B657951
:1002E000205B62746E7C782079207620685D2872AD
:1002F00065702F61636C293A205B000A002530325B
:100300005820006B6579626F6172645F7265706F0F
:1003100072743A20000A0025303258006B65796209
:100320006F6172645F7365745F6C65643A20004F3F
:100330006E6573686F743A206163746976653A20FC
:1003400025640A005B735D004B6579626F617264BE
:100350002073746172742E0A005B575D005B535DFD
:10036000005B525D005B445D005B435D0014037302
:1003700000700065006C0075006E006B0065007217
:1003800000000010037300650061006C0061006EE6
:1003900000640000000403090409025B000301007B
:1003A000A0FA090400000103010100092111010064
:1003B000012240000705810308000A090401000129
:1003C00003000000092111010001227B00070582C2
:1003D0000320000A090402000203000000092111A1
:1003E0000100012222000705830320000107050305
:1003F000032000011201100100000008EDFE0000C2
:100400000100010200010631FF0974A101097515FF
:100410000026FF009520750881020976150026FF49
:1004200000952075089102C005010902A10185020D
:100430000901A100050919012908150025019508E0
:10044000750181020501093009311581257F950269
:100450007508810609381581257F95017508810683
:10046000050C0A38021581257F950175088106C0A3
:10047000C005010980A101850319012AB7001501F2
:1004800026B700950175108100C0050C0901A10176
:10049000850419012AA002150126A00295017510F4
:1004A0008100C005010906A101050719E029E7152A
:1004B00000250195087501810295017508810105E6
:1004C00007190029FF150026FF0095067508810011
:1004D0000508190129059505750191029501750316
:1004E0009101C00011241FBECFEFDAE0DEBFCDBF07
:1004F00004B603FE27C08091610290916202A09130
:100500006302B09164028730904BA740B04BD1F4A6
:1005100010926102109262021092630210926402C1
:1005200014BE84B7877F84BF0FB6F894A8958091D6
:100530006000886180936000109260000FBEE0E070
:10054000F8E3099511E0A0E0B1E0E4EAF6E402C0C6
:1005500005900D92A639B107D9F722E0A6E9B1E0DE
:1005600001C01D92A136B207E1F70E94781D0C94DC
:1005700050230C940000FF93EF93E0919601F091CB
:100580009701309709F00995EF91FF910895FC01CB
:100590008591803011F0EFDFFBCF0895FF27E0E277
:1005A00030E247FF0CC0419597FF09C0EDE260952E
:1005B000709580959095611D711D811D911D27FF7E
:1005C00002C0219530E350E2AA27660F771F881FEB
:1005D000991FAA1FA41710F0A41B63955A95A9F799
:1005E000AA3008F0A95FA05DAF93F395611571057E
:1005F0008105910541F7ED3211F4EF93F395F21770
:1006000018F43F93F395FBCF8F91B5DFFA95E1F79F
:100610000895E991F9918591803021F0853219F0A2
:10062000AADFF9CF089520E0E89455915532C1F33F
:10063000503311F4689455915A3348F4505390F361
:10064000220F022E220F220F200D250FF4CF0EF4C1
:10065000219589919991533619F3533729F15335DF
:1006600059F1BC0188279927E8945C3621F48991D7
:10067000999168945591543639F446EF7EF077FF9E
:100680000DC08FEF9FEF0AC055374AE039F058355B
:1006900040E121F0523642E009F00895FF93EF93D4
:1006A0007DDFEF91FF91B7CFFF93EF93FC01819135
:1006B0008030B9F360DFFBCFFF93EF9368DFF1CFBA
:1006C000DF93CF93CDB7DEB72596A3DFCF91DF9130
:1006D000089580912F028160826080932F02089597
:1006E000FB01258122952F701F922F932581217068
:1006F0001F922F9324812F9323812F9322811F9266
:100700002F9321811F922F9320811F922F939F93CC
:100710008F9384EF90E09F938F930E9460038DB737
:100720009EB740960FB6F8949EBF0FBE8DBF81E076
:10073000089581E008950C94700308950C949D032E
:100740001F93CF93DF9300D000D01F92CDB7DEB7B9
:1007500049835A836B833091C30189819A81311116
:1007600014C0662359F0222349F00E94F217182F73
:10077000682F89819A810E949B1703C00E94C61727
:10078000182F69817A81812F04C00E94F217698134
:100790007A810F900F900F900F900F90DF91CF9173
:1007A0001F910C94A304FC01262F4081518162818A
:1007B000738184810C94A003CF93DF93EC0160E0FC
:1007C0000E94D303BE01DF91CF910C949E030E943F
:1007D000A7060C942A070C94260708950E94241358
:1007E0000E94ED032FEF84E39CE021508040904075
:1007F000E1F700C000000C94311B0F931F93CF93BF
:10080000DF938C0161E00E94D303EC01B8010E94E8
:100810009B03882309F45BC0B801CE010E94D70B6B
:10082000882309F454C0B801CE010E94290C882302
:1008300009F44DC0B801CE010E94540D882309F47B
:1008400046C0F80182818823D9F1CF3D8CE5D807D5
:1008500079F140F4C115FCE5DF0791F0C130DC45CA
:1008600091F02EC0CC35EDE5DE0741F1CD35FDE54B
:10087000DF0709F1CB35DD4519F50E94A21820C02C
:100880000E94EE0324C080912F02C82FC095C17032
:10089000C0FB80F980932F02CC2329F089E792E0F6
:1008A0000E94C70214C087E692E00E94C70210C0EF
:1008B0000E94081A0CC00E94991802C00E94A51834
:1008C000C801DF91CF911F910F910C949903C0E063
:1008D0008C2FDF91CF911F910F9108958295982FC2
:1008E000937344E0949F900111248C7C86958695A7
:1008F000282B822F8575880F2A7A2695822B0895BA
:10090000CF93DF93D92F0E946E04C82F8D2F0E94A2
:100910006E042C2F30E0322F2227A901482BCA0168
:10092000DF91CF91089508950C94930481E0089588
:100930000C949604CF93C82F0E9494048C2F0E948D
:100940009804CF91089520E3829FC0011124FC01F7
:100950002CE0729FE00DF11D1124E60FF11DEE0F4A
:10096000FF1FE95BFE4F859194910895CF93DF932C
:100970000E94A3040E94B805EC01811521E59207AD
:1009800008F043C0811540E5940708F08AC0883E0E
:10099000910520F5803E910508F0E6C0883A910562
:1009A00070F4853A910508F074C08130910509F41E
:1009B000DBC008F4D7C0049708F0D6C0D3C08F3B83
:1009C000910508F0CFC0C85AD0E0CC0FDD1FCB5E38
:1009D000DE4F0990D881C02DD464C6C0C11580E215
:1009E000D80758F4C11521E0D20708F0BDC0CD3EAC
:1009F000D10508F4B7C0D065B7C0C11540E4D4072D
:100A000008F4B0C0DF70D06AAFC0C11585E5D80763
:100A1000A0F4C11524E5D20708F08AC0C11543E54A
:100A2000D40708F06FC0C11582E5D80708F054C09C
:100A3000DC2FCC27C16FD06A97C0C11529E5D2073A
:100A4000A0F4C11548E5D40708F077C0C11586E5C4
:100A5000D80708F087C08C2F0E944C068F71C82FD2
:100A6000D0E0DC2FCC27D0627FC0C1152AE5D207A9
:100A700008F468C0CE0190568115904208F072C00B
:100A80008D2F8F710E944C06DD27D0628F71D82B7D
:100A90006BC0C55AD0E0CD5BDE4FC881D0E0D064DA
:100AA00063C074E0969587957A95E1F783709C2FE3
:100AB000937021E030E002C0220F331F9A95E2F7D5
:100AC0003C68382BCF70C695C69580E2C89FE00180
:100AD0001124C22BD32B48C0CE018370992721E06B
:100AE00030E002C0220F331F8A95E2F78C2F8695E3
:100AF000869540E2849FC0011124E901C82BD92BBF
:100B0000DC6832C0CE018370992721E030E002C05A
:100B1000220F331F8A95E2F78C2F8695869540E247
:100B2000849FC0011124E901C82BD92BDA681CC0AD
:100B3000DC2FCC27C46FD06A17C0DC2FCC27C06F46
:100B4000D06A12C08C2F8F700E944C0694E0D6950C
:100B5000C7959A95E1F7CF70D0E0DC2FCC27D0690C
:100B6000C82B02C0C0E0D0E0CE01DF91CF91089544
:100B70008238910569F1B0F48133910509F46DC0B3
:100B800048F48932910509F463C08A32910509F469
:100B900069C008958533910509F455C089339105DD
:100BA000B9F00895833E910569F138F4803E9105CE
:100BB000B1F0823E910509F10895863E9105A9F1B3
:100BC000873E9105B9F1843E910509F064C023C0C8
:100BD00020913E0220FD4FC021FD4DC0089580911F
:100BE0003E0280FD44C080913F0280FF44C080915E
:100BF0003E0284FD42C083EE4DC080913E0282FFE2
:100C000038C0F5CF80913E0282FD33C080913F0213
:100C100080FD31C0ECCF80913F0281FF32C08091D6
:100C20003E0284FD2AC087EE35C080913E0283FFDC
:100C300026C0F5CF80913E0283FD21C080913F0206
:100C400081FD1FC0ECCF80913E0285FD1CC01DC000
:100C500080913E0285FD19C016C080913E0286FD3E
:100C600016C017C080913E0286FD13C010C089E3F4
:100C700011C082EE0FC080EE0DC080E00BC086EE8A
:100C800009C084EE07C089E205C085E303C08AE29B
:100C900001C081E390E0089590913E0292FF0DC063
:100CA000282F2871283019F4877F846006C0282FE8
:100CB0002471243011F48B7F886093FF0DC0282F9E
:100CC0002871283119F4877E846106C0282F247189
:100CD000243111F48B7E886120913F0220FF0DC0EA
:100CE000382F3871383019F4877F816006C0382F6B
:100CF0003171313011F48E7F886021FF0DC0282FB3
:100D00002871283119F4877E816106C0282F21714E
:100D1000213111F48E7E886194FD877E08950C94B4
:100D20005A190E9486078FE39CE90197F1F700C0EA
:100D300000000E94860780E00E94CB0680FF04C06E
:100D40000E948F060C94311B08950C9491060E940A
:100D50006019811102C00E94081A0E946B198093C9
:100D60002F020E94731990933F0280933E020E94CB
:100D7000A5060E946F19682F70E080E090E00E9445
:100D80009D1660911A0270911B0280911C02909135
:100D90001D020C94D516E82FF0E0EE0FFF1FE85B64
:100DA000FD4F808191810895CF92DF92EF92FF9263
:100DB0000F931F93CF93DF938AE992E00E94C702BB
:100DC00088E4E82E82E0F82EC0E0D0E095E9C92E54
:100DD00092E0D92E0CE812E0DF93CF93DF92CF920E
:100DE0000E94600382E992E00E94C702F7018191AC
:100DF00091917F010E9480049F938F931F930F9383
:100E00000E9460038AE892E00E94C70221968DB793
:100E10009EB708960FB6F8949EBF0FBE8DBFC43024
:100E2000D105D1F6DF91CF911F910F91FF90EF90F7
:100E3000DF90CF90089580EA8A95F1F7089500C079
:100E400008950C941B0708950C9423070C94240711
:100E50000C9423070C942807F894E82FE295EF7080
:100E6000F0E031A1282F2F7081E090E001C0880FC1
:100E70002A95EAF7982F9095932391A392A1892B15
:100E800082A3789408950F931F93CF93DF9380EFFD
:100E90000E942C0781EF0E942C0784EF0E942C07F0
:100EA00087EF0E942C07C6E4D1E002E511E08991AA
:100EB0000E942C070C171D07D1F7109241021092C7
:100EC000400210924902109248021092430210927E
:100ED000420210924B0210924A0210924502109266
:100EE000440210924D0210924C021092470210924E
:100EF000460210924F0210924E0284E00E941408A3
:100F0000DF91CF911F910F910C94E7037F928F9205
:100F10009F92AF92BF92CF92DF92EF92FF920F9388
:100F20001F93CF93DF93C2E5D1E080E4A82E82E047
:100F3000B82E98E4E92E92E0F92E712C01E010E031
:100F40006E018881F894E82FE295EF70F0E021A11E
:100F50008F70A80102C0440F551F8A95E2F7CA019D
:100F6000922F982B91A392A18095892382A37894A4
:100F70000E941F07E6E4F1E020E030E0812C912C94
:100F80004191A42FA295AF70B0E090968C9190E023
:100F90004F7002C0959587954A95E2F780FD08C08D
:100FA000C801022E02C0880F991F0A94E2F702C0FE
:100FB00080E090E0882A992A2F5F3F4F2C3031053E
:100FC000F9F62196F60180810E942C070E942107E4
:100FD000F501808191818816990621F091828082A5
:100FE00081E001C080E0782AF2E0AF0EB11CEA1483
:100FF000FB0409F0A5CF272D44E068E472E080E40B
:1010000092E00E9415080E94EB03872DDF91CF919B
:101010001F910F91FF90EF90DF90CF90BF90AF9016
:101020009F908F907F9008950895FF920F931F9344
:10103000CF93DF93F82E092F162FD72FC42F2223FB
:1010400049F081E080939A010E94E41A90939901FB
:101050008093980180919A018823D9F0809198011A
:10106000909199010E94FC1A069798F0EF2DF02FAD
:10107000A12FBD2F80E090E04C2F50E08417950702
:1010800034F4219131912D933D930196F7CF109235
:101090009A01DF91CF911F910F91FF900895809158
:1010A000A10180FF0BC06091050185E0689FB00140
:1010B000112475956795759567952BC081FF09C0BB
:1010C0006091050185E0689FB001112475956795D1
:1010D00020C082FF07C06091050185E0689FB001D4
:1010E000112417C09091A0019923D1F060910401BF
:1010F000961788F72091050185E0289F900111241B
:10110000929FA001939F500D112470E0CA010E948C
:10111000E0226038710540F46115710519F406C0CC
:1011200065E070E0862F08958FE7089581E00895C7
:101130008091A10180FF08C06091010170E0759568
:1011400067957595679521C081FF06C06091010183
:1011500070E07595679519C082FF04C06091010128
:1011600070E010C090919F01992399F06091000167
:101170009617A0F780910101899FC001112470E0AA
:101180000E94E0226038710540F46115710519F480
:1011900006C061E070E0862F08958FE7089581E032
:1011A00008958D3E21F40E944F08819504C08E3E23
:1011B00029F40E944F088093A50108958F3E21F4E1
:1011C0000E944F08819504C0803F29F40E944F0877
:1011D0008093A4010895893F19F40E94980805C0DE
:1011E0008A3F31F40E94980881958093A601089562
:1011F0008B3F21F40E949808819504C08C3F29F40C
:101200000E9498088093A70108959FE0980F983056
:1012100078F421E030E0A90102C0440F551F9A95EF
:10122000E2F7CA019091A301892B8093A30108954D
:101230008D3F21F48091A10181600BC08E3F21F48C
:101240008091A101826005C08F3F29F48091A101A6
:1012500084608093A10108958D3E39F49091A50199
:1012600097FF35C01092A50159C08E3E29F4909188
:10127000A5011916BCF32BC09091A4018F3E29F44F
:1012800097FF25C01092A40149C0803F19F4191698
:10129000CCF31DC09091A601893F29F41916BCF426
:1012A0001092A6013BC08A3F19F497FF10C0F8CFF7
:1012B0008B3F39F49091A70197FF09C01092A701C5
:1012C0002DC08C3F21F49091A7011916BCF39FE02B
:1012D000980F983080F421E030E0A90102C0440F5B
:1012E000551F9A95E2F7CA0180959091A301892331
:1012F0008093A30113C08D3F21F48091A1018E7FC3
:101300000BC08E3F21F48091A1018D7F05C08F3FDE
:1013100029F48091A1018B7F8093A1018091A40188
:10132000811106C08091A501811102C01092A00117
:101330008091A601811106C08091A701811102C090
:1013400010929F01089580912F0283FF7EC088ED47
:1013500092E00E94C7028091A3011F928F9383EDB8
:1013600092E09F938F930E94600381ED92E00E9430
:10137000C7028091A401282F082E000C330B3F9345
:101380008F938EEC92E09F938F930E9460038CEC7E
:1013900092E00E94C7028091A501282F082E000C20
:1013A000330B3F938F9389EC92E09F938F930E942E
:1013B000600387EC92E00E94C7028091A601282F6B
:1013C000082E000C330B3F938F9384EC92E09F9395
:1013D0008F930E94600382EC92E00E94C70280918A
:1013E000A701282F082E000C330B3F938F938FEB10
:1013F00092E09F938F930E9460038CEB92E00E9497
:10140000C7028091A0011F928F9389EB92E09F9376
:101410008F930E94600387EB92E00E94C702809145
:10142000A1011F928F9384EB92E09F938F930E9470
:10143000600381EB92E00E94C7028DB79EB74C9685
:101440000FB6F8949EBF0FBE8DBF0E94E41A209184
:10145000A401211104C02091A501222321F0909321
:101460009E0180939D012091A601211104C020912D
:10147000A701222321F090939C0180939B0182EA93
:1014800091E00C94DF0DEF92FF920F931F93CF9397
:10149000DF9300D000D000D0CDB7DEB786E0E2EA1F
:1014A000F1E0DE01119601900D928A95E1F7E0904E
:1014B000A401F090A5010091A6011091A70110923E
:1014C000A4011092A5011092A6011092A701E110AB
:1014D00003C0FF2009F45DC080919D0190919E01A1
:1014E0000E94FC1AAC019091A001992339F020913F
:1014F000060130E02417350758F04BC02091070152
:101500008AE0289F900111242417350718F041C064
:101510009F3F19F09F5F9093A001EE2061F00E9421
:101520004F081E1414F09FEF01C091E0989F902D7A
:1015300011249093A401FF2061F00E944F081F1412
:1015400014F09FEF01C091E0989F902D112490938B
:10155000A5013091A4013323E1F02091A5012223BC
:10156000C1F045EB3403C0011124992319F0909385
:10157000A40103C081E08093A40135EB2303C001E3
:101580001124992319F09093A50103C081E0809361
:10159000A501011103C0112309F45DC080919B01D5
:1015A00090919C010E94FC1AAC0190919F0199239B
:1015B00039F02091020130E02417350758F04BC074
:1015C000209103018AE0289F9001112424173507F8
:1015D00018F041C09F3F19F09F5F90939F01002337
:1015E00061F00E949808101614F09FEF01C091E07E
:1015F000989F902D11249093A601112361F00E94D1
:101600009808111614F09FEF01C091E0989F902D5B
:1016100011249093A7013091A6013323E1F020918A
:10162000A7012223C1F045EB3403C0011124992303
:1016300019F09093A60103C081E08093A60135EBD9
:101640002303C0011124992319F09093A70103C02B
:1016500081E08093A7018091A40181110BC080914A
:10166000A501811107C08091A601811103C080915D
:10167000A70181110E94A309EB82FC820D831E83C6
:1016800086E0FE013196A2EAB1E001900D928A95C2
:10169000E1F726960FB6F894DEBF0FBECDBFDF91FF
:1016A000CF911F910F91FF90EF900895E2EAF1E042
:1016B00086E0DF011D928A95E9F71092A001109251
:1016C0009F011092A10108950F931F93CF93DF9371
:1016D000C42FD22FFC0182818823C9F04093AA0134
:1016E0000E94E41A9093A9018093A80180E28C0FD4
:1016F000883008F057C0C77081E001C0880FCA95D4
:10170000EAF7DF91CF911F910F910C94A010809177
:10171000AA01481330C08091A8019091A9010E94AC
:10172000FC1A883C910538F510E21D0FCD17B9F071
:1017300080E28C0F883040F4C77081E001C0880FD0
:10174000CA95EAF70E94A710183028F581E09D2F6E
:10175000977001C0880F9A95EAF70E94A010802F19
:101760000E9497101830F0F4D77081E001C0880F04
:10177000DA95EAF70AC080E28C0F883098F4C770D7
:1017800081E001C0880FCA95EAF7DF91CF911F91E0
:101790000F910C94A710802FDF91CF911F910F9183
:1017A0000C949710DF91CF911F910F9108950F9393
:1017B0009C01CB01243F4CE5340731F188F4293DED
:1017C000FCE53F07D9F02A3D4CE5340779F1283D87
:1017D0003C45A9F506E221EE41EE68ED7CE52BC023
:1017E000263FFCE53F07E1F0A8F0273F3C4539F5EF
:1017F00007E225EE46EE67EF7CE51DC007E225EE29
:1018000045EE69ED7CE517C006E221EE40EE64EF9F
:101810007CE511C007E225EE44EE65EF7CE50BC0E8
:1018200006E221EE42EE66EF7CE505C008E221E02B
:1018300045EE6AED7CE50E94640B80E008C0FC0187
:101840008281882319F01092AA0101C081E00F91D2
:101850000895CF93DF93EC01FB018281882309F483
:101860001FC1C230FCE5DF0708F41BC1C6319CE58F
:10187000D90738F09E012B5F3C452930310508F02F
:1018800010C10E94731990933F0280933E02C031B1
:10189000ECE5DE0709F4C3C008F041C0C8308CE5B0
:1018A000D80709F49AC0F0F4C430ECE5DE0709F477
:1018B00087C068F4C2308CE5D80709F477C0C3301C
:1018C000DC4509F0E3C080913E02826076C0C630FC
:1018D000ECE5DE0709F46EC008F07BC080913E02A3
:1018E00088606BC0CC308CE5D80709F485C068F4FB
:1018F000CA30ECE5DE0709F474C008F079C00E9434
:10190000241380913E02806858C0CE308CE5D80701
:1019100009F476C008F07FC080913E028BC0CC3FB6
:10192000ECE5DE0709F44FC018F5C3318CE5D807A4
:1019300009F47DC078F4C131ECE5DE0709F473C029
:10194000C231DC4509F0A2C00E94241380913E02FE
:101950008F7733C0C5318CE5D80709F472C008F41D
:1019600086C0CB3FDC4509F091C080913F023EC06C
:10197000C115FDE5DF0709F45FC058F4CE3F9CE5D3
:10198000D90709F444C008F43FC080913F02826047
:101990002DC0C230FDE5DF0709F475C008F45DC055
:1019A000C330DD4509F072C080E06EC080913E0218
:1019B000816003C080913E02806180933E0266C0D8
:1019C00080913E0211C080913F02826080933F026D
:1019D0005DC080913E028062F0CF80913E028064C3
:1019E000ECCF80913E0288608460E7CF8160EECFCB
:1019F00080913E028E7FE1CF80913E028D7FDDCFD0
:101A000080913E02877FD9CF80913F0218C080919C
:101A10003F028D7FDBCF80913E028F7ECECF8091C3
:101A20003E028F7DCACF80913E028F7BC6CF8091D0
:101A30003E02877F8B7FC1CF80913F028D7F8E7F5B
:101A4000C5CF80913E0282FB222720F991E09227A8
:101A500090FB82F990FB83F9B0CF80913F02982FE1
:101A6000909591708E7F892B90FB81F9AFCF0E946A
:101A7000241380913E0287FB222720F991E09227D0
:101A800090FB87F99ACF81E00E940A1A80913E026A
:101A900090913F020E9484190E94241380E001C0AB
:101AA00081E0DF91CF910895CF93DF9386319C45FC
:101AB00041F5EB010E94A818982F8A812091080116
:101AC00030910901882379F09A7A81E009F480E065
:101AD0008093AB01911102C069E201C065E3C901C5
:101AE0000E94511A0AC08091AB01811102C069E2C3
:101AF00001C065E3C9010E94531A0E94ED1880E0FD
:101B000001C081E0DF91CF9108959093B10180935E
:101B1000B0010895E091B001F091B101309721F04A
:101B20000190F081E02D099480E00895EF92FF92FA
:101B30000F931F93CF93DF93E091B001F091B10128
:101B40003097B1F18C010280F381E02D09958091ED
:101B50002F0282FF2DC080FF04C083E093E00E942B
:101B6000C702E80118E08DEFE82E82E0F82E8091A0
:101B70002F0280FF0BC088811F928F93FF92EF92FC
:101B80000E9460030F900F900F900F9011502196BC
:101B90001111EDCF80912F0280FF0AC08BEF92E0F0
:101BA000DF91CF911F910F91FF90EF900C94C7029E
:101BB000DF91CF911F910F91FF90EF900895E091E9
:101BC000B001F091B101309739F022E0DC012C93A3
:101BD0000480F581E02D099408952091AE013091A3
:101BE000AF012817390771F09093AF018093AE01D0
:101BF000E091B001F091B101309721F00680F781BA
:101C0000E02D099408952091AC013091AD01281781
:101C1000390771F09093AD018093AC01E091B00170
:101C2000F091B101309721F00084F185E02D099405
:101C300008950E94F01A6093BF017093C0018093D1
:101C4000C1019093C2016093BB017093BC0180936A
:101C5000BD019093BE01089585B7806885BF85B7A3
:101C6000806885BF089581E008950C94330E08952F
:101C70000C94370E0C9469030C94370E0C943C0EA4
:101C80000C94370E0E942C0E85E19DE10E94551B9D
:101C90000E94400E0C943E0E0E94380E0C94370E9B
:101CA0000E94DB1A0E9443070C943A0ECF93C82F70
:101CB00080912F0282FF1EC080FF04C08CE193E060
:101CC0000E94C70280912F0280FF0CC01F92CF9309
:101CD00087E193E09F938F930E9460030F900F9092
:101CE0000F900F9080912F0280FF04C085E193E058
:101CF0000E94C7028C2FCF910C949A046F927F920E
:101D00008F929F92AF92BF92CF92DF92EF92FF920B
:101D10000F931F93CF93DF93CDB7DEB72A970FB6FC
:101D2000F894DEBF0FBECDBF0E94860781110E94CE
:101D3000190E33EB832E31E0932E00E010E0C02E1D
:101D4000802F0E94CB065C01F401619071904F01DD
:101D50006826792661147104B1F40F5F1F4F0430B7
:101D6000110569F78FEF89838A831B820E94E41A29
:101D70008160782F9D838C8349815A816B818D810D
:101D80000E94340F3AC080912F0281FD0E94D40638
:101D9000D12CEE24E394F12CC3018E219F21892BB9
:101DA00029F10E94350E8823A9F0DE82CF82AE2071
:101DB000BF2081E0AB2809F480E088870E94E41A04
:101DC0008160782F9A8789874E815F8168858A85AF
:101DD0000E94340F000F111FF801ED54FE4F808157
:101DE0009181E826F926F182E08207C0D394EE0CB7
:101DF000FF1CFCE0DF12D0CFB0CF0E94430A0E944C
:101E00008A0D9091B2018917D1F00E948A0D8093BA
:101E1000B2012A960FB6F894DEBF0FBECDBFDF9198
:101E2000CF911F910F91FF90EF90DF90CF90BF90D7
:101E3000AF909F908F907F906F900C94560E2A9643
:101E40000FB6F894DEBF0FBECDBFDF91CF911F91CB
:101E50000F91FF90EF90DF90CF90BF90AF909F9049
:101E60008F907F906F900895DF92EF92FF920F9383
:101E70001F93CF93DF93CDB7DEB72B970FB6F894B0
:101E8000DEBF0FBECDBFF42E052F162FE72ED82EA6
:101E900061110E94C818FE01319686E0DF011D9293
:101EA0008A95E9F77E2D4F2D502F612F8D2D9E8124
:101EB0000E94DD152B960FB6F894DEBF0FBECDBF86
:101EC000DF91CF911F910F91FF90EF90DF900895D8
:101ED000FC01808191810E9434180895CF9388235A
:101EE00009F4A4C0C82F8238C1F40E948A0D81FD74
:101EF0009DC069E380910801909109010E94511AE7
:101F00000E94ED182FEF81EE94E021508040904028
:101F1000E1F700C0000069E319C0833801F50E94B1
:101F20008A0D80FD83C063E58091080190910901CD
:101F30000E94511A0E94ED182FEF81EE94E021507B
:101F400080409040E1F700C0000063E58091080107
:101F5000909109010E94531ACF910C94ED18843886
:101F6000C1F40E948A0D82FD61C067E4809108017E
:101F7000909109010E94511A0E94ED182FEF81EEF5
:101F800094E0215080409040E1F700C0000067E4F9
:101F9000DDCF8CEF8C0F813AD0F46C2F809108014B
:101FA000909109010E941B1A882349F06C2F80919F
:101FB0000801909109010E94531A0E94ED186C2F9C
:101FC00080910801909109010E94511AC5CF80E2C9
:101FD0008C0F883048F4C77081E001C0880FCA9523
:101FE000EAF70E94AB18B8CFEBE5EC0FE33040F412
:101FF000F0E0EC57FE4F808190E0CF910C94ED0D16
:10200000E8E5EC0FE73150F4F0E0EE0FFF1FEA5A7D
:10201000FE4F80819181CF910C94030ECD3E30F024
:102020008C2F0E94D108CF910C94A309CF910895D1
:10203000882309F464C0823879F40E948A0D81FFF4
:102040005EC069E380910801909109010E94511AD4
:102050000E94ED1869E310C08338B1F40E948A0D24
:1020600080FF4DC063E580910801909109010E94B5
:10207000511A0E94ED1863E58091080190910901C1
:102080000E94531A0C94ED18843879F40E948A0D3A
:1020900082FF35C067E480910801909109010E9498
:1020A000511A0E94ED1867E4E7CF9CEF980F913A20
:1020B00010F4682FE1CF90E2980F983050F48770B9
:1020C00091E001C0990F8A95EAF7892F0E94B11813
:1020D000D9CF9BE5980F933020F480E090E00C94EA
:1020E000ED0D98E5980F973120F480E090E00C9486
:1020F000030E8D3E20F00E942C090C94A309089534
:102100001F93CF93DF93182FEB010E946E0F209740
:1021100041F08FE99FE00197F1F700C0000021979F
:10212000F6CF812FDF91CF911F910C941810893336
:1021300019F060E070E002C060E570E00C9480107F
:10214000882321F00E94AB180C94ED180895882381
:1021500021F00E94B1180C94ED180895CF92DF92EF
:10216000EF92FF920F931F93CF93DF937C01D62FB3
:10217000C72FFC011281058102950F700E946C1817
:10218000882399F0112389F08C2F807F803421F0EF
:1021900080E28D0F883048F082E00E943D190E9455
:1021A0006C1891E0D82ED92601C0D12CCC2EC29427
:1021B0008FE0C8228C2D90E08C30910508F0B6C1DC
:1021C000FC01EA5AFF4F0C94F4228C2F807FCF70D1
:1021D000882311F0C295C07F112399F0CC2309F414
:1021E00091C180E28D0F883010F0D11104C08C2F86
:1021F0000E94AB1803C08C2F0E94BB180E94ED18E0
:1022000081C18D2F0E941810CC2309F48FC180E268
:102210008D0F883010F0D11104C08C2F0E94B1189E
:1022200003C08C2F0E94C1180E94ED187FC18C2F13
:10223000807FCF70803211F0C295C07FDD2319F00E
:10224000D130C9F022C0112371F0002341F00130D8
:1022500031F40E94CE188C2B0E94D61867C10E94C0
:10226000CE188C2B1DC0002319F0013009F45EC17B
:102270000E94E31825C0112321F0063008F056C152
:102280000EC0053008F052C11BC0112361F00023BD
:1022900031F0F701858180FF35C18F7085838C2FE8
:1022A0000E94A01043C1002359F0D93309F03BC16B
:1022B000FFEF07EE13E0F15000401040E1F731C1AD
:1022C0008C2F0E94A71032C18C2F86958695837023
:1022D00019F0813061F02AC1112321F08D2F9C2F3C
:1022E000937002C080E090E00E94ED0D27C11123A1
:1022F00021F08D2F9C2F937002C080E090E00E940F
:10230000030E1CC18D2F112319F00E94D10802C0A9
:102310000E942C090E94A30911C18C2F837009F01F
:1023200047C0111107C12D2F229526952770220F26
:10233000220F6D2F6F70862F90E0A0E0B0E0022E8C
:1023400004C0880F991FAA1FBB1F0A94D2F7D4FF9D
:1023500010C04FE050E060E070E004C0440F551F33
:10236000661F771F2A95D2F7409550956095709516
:1023700003C040E050E0BA01C695C695C3708A011B
:102380009B01082B192B2A2B3B2BC901B801C2300A
:1023900049F058F4C13019F00E94B116CBC00E9428
:1023A0009F16C8C00E94C316C5C00E949D16C2C019
:1023B000112319F08C2F817001C08695882309F4B0
:1023C000B9C02D2F229526952770220F220F6D2F31
:1023D0006F70862F90E0A0E0B0E0022E04C0880F5E
:1023E000991FAA1FBB1F0A94D2F7D4FF10C04FE059
:1023F00050E060E070E004C0440F551F661F771F77
:102400002A95D2F7409550956095709503C040E0AD
:1024100050E0BA01C695C695C3708A019B01082B8E
:10242000192B2A2B3B2BC901B801C23049F058F4B3
:10243000C13019F00E9476177DC00E9464177AC0DF
:102440000E94881777C00E94D71674C0CF701123DE
:1024500039F08C2F0E94FD168D2F0E94A0106AC0AB
:102460008D2F0E94A7108C2F0E941E1763C0D23F91
:1024700001F128F4D03F41F0D13FA1F03FC0D33F5C
:10248000F9F0D43F39F13AC0112341F0053008F09A
:102490004DC08C2F8F710E94431748C0063008F042
:1024A00045C0F7CF112339F08C2F8F710E94FD1694
:1024B0003DC01123C9F38C2F8F710E941E1736C0A7
:1024C000112329F08C2F8F710E94E8162FC00E94D3
:1024D000E3162CC0112349F0CF718C2F0E94FD16FA
:1024E00063E08C2F0E94221921C081E00E943D19D7
:1024F0000230E0F082E00E943D1918C0112331F053
:10250000002391F28D2F0E946E0F10C0002399F2CC
:10251000D93349F41FEF27EE33E01150204030400B
:10252000E1F700C000008D2F0E94181088EF8C0D7D
:10253000843020F40E948A0D0E949A04DD20C9F0A4
:102540000E94681880FD15C0F70112820E9462186F
:102550000E94FD16C7010E94DA120E946218DF91E4
:10256000CF911F910F91FF90EF90DF90CF900C943F
:102570001E17DF91CF911F910F91FF90EF90DF9089
:10258000CF9008950F931F93CF93DF93EC01688151
:1025900079818A810E943F188C010E949A170E94BB
:1025A0008B16B801CE010E94AE10DF91CF911F9122
:1025B0000F910895CF93DF93EC01988189812B814E
:1025C0003C81232B31F08F3F31F481E09F3F19F4A0
:1025D00003C081E001C080E080FD19C0CE010E94EF
:1025E000FD0381110CC00E946C18882381F08A8140
:1025F000882369F082E0DF91CF910C943D19CE01E0
:102600000E94C212CE01DF91CF910C94DC03DF91C6
:10261000CF91089580E090E00E94ED0D80E090E081
:102620000E94030E0E94C8180E94CB180E94ED1849
:102630000E94560B0C94A309809108019091090106
:102640000E94551A0C940A130E94B8180C941C137B
:10265000E92FE295EF704E2F50E0FA013297EE30FD
:10266000F105B0F4EE59FF4F0C94F422803F91F045
:1026700018F4883E68F40EC0843F51F40BC0883EC5
:1026800048F0813F29F406C093FB882780F908951C
:1026900080E0089581E008950E9434180E94281374
:1026A0000895CF93DF9300D000D01F92CDB7DEB74F
:1026B0000F900F900F900F900F90DF91CF91089592
:1026C000CF93DF9300D000D000D0CDB7DEB72696F1
:1026D0000FB6F894DEBF0FBECDBFDF91CF91089546
:1026E0001F93CF93DF93C091C40116E08091C50181
:1026F000C81799F0D0E01C9FF0011D9FF00D112428
:10270000EA53FE4F408151816281738184819581BA
:102710000E9460132196C770E9CFDF91CF911F917E
:1027200008954091F6015091F7016091F801709180
:10273000F9018091FA019091FB010C9460130F93C1
:102740001F93CF93DF938091FB0182958F7009F0E7
:102750005DC08091F801882309F458C08091C401BC
:102760001091C5016091F6017091F701C091F901D6
:10277000D091FA0191E06F3F09F090E0292F06E037
:10278000811709F443C0209721F07F3F21F030E00A
:1027900003C031E001C0322F90E030FD34C0089F0B
:1027A000F001099FF00D1124DF01AA53BE4F1196CD
:1027B0003C911197371327C03C91361324C01296D1
:1027C0003C91129731111FC013964D915C91149753
:1027D0004C1B5D0B483C5105B0F48091FB018F70A0
:1027E00080618093FB01E553FE4F80818F70806193
:1027F000808386EF91E00E94DA12DF91CF911F91E2
:102800000F910C94701301968770BACFDF91CF911E
:102810001F910F9108959F92AF92BF92CF92DF9236
:10282000EF92FF920F931F93CF93DF93CDB7DEB755
:1028300061970FB6F894DEBF0FBECDBF8C0185E067
:10284000F801DE011D9601900D928A95E1F7F801DD
:1028500040815181E2809091F6016091F7012091D1
:10286000F9013091FA012115310531F06F3F31F452
:1028700081E09F3F19F403C081E001C080E0F82FA0
:10288000F1709F2E80FD46C1F801A380B48086EFD1
:10289000C82E81E0D82EF090F801F501E21BF30B71
:1028A000FF2009F4DFC08091FB01E83CF10508F04E
:1028B0009BC0282F207F09F052C0561313C0491324
:1028C00011C0FE2CE1100EC08F7080618093FB015F
:1028D0000E949113C6010E94DA128091FB01F80157
:1028E000858358C1AB2831F05F3F31F481E04F3F21
:1028F00019F403C081E001C080E080FD03C081E0E5
:102900008E2502C080E090E0F82FF170FF2E80FF4E
:102910001CC08091C4012091C50136E0821709F4E2
:1029200017C190E0389FF001399FF00D1124EA5350
:10293000FE4F6181561306C06081461303C0628159
:10294000E61203C001968770E9CFFE2CEE2009F451
:1029500021C18091FB0181608093FB015AC0561315
:1029600006C0491304C0E11002C0F8019FC04D87A2
:102970005E878D859E850E944C13882379F1EE2019
:1029800069F12091FB01822F82958F7090E0029770
:1029900074F08091F6019091F70198878F831986E2
:1029A000BB86AA862C87CE0107960E94DA1286E0A3
:1029B000F801A6EFB1E001900D928A95E1F70E942F
:1029C0009F130E9491130DC0561729F14D875E8702
:1029D0008D859E850E944C1381112CC0C8010E94D8
:1029E000DA12FF24F394D6C0282F207F69F77A2DBE
:1029F000B98AA88A6E2D89890E94511386EF91E0C9
:102A00000E94DA1286E0F60111928A95E9F70E9497
:102A10009113F12CBFC04913D9CFE110D7CFF801E2
:102A20008583C8010E94DA1286E0F60111928A9528
:102A3000E9F7B0C0EE2091F22091FB01822F829540
:102A40008F7090E002970CF4B2CF8091F6019091D4
:102A5000F7019A8389831B82BD82AC822E83CE01CB
:102A60000196A3CFE83CF10508F047C0FE2CEE200C
:102A700009F4B4CF561330C049132EC02091FB0186
:102A800020FD21C0822F82958F70482F50E0411584
:102A90005105C9F0F80125834F30510541F08F5F92
:102AA000982F9295907F822F8F70892B8583C801F4
:102AB0000E94DA1286E0F801A6EFB1E001900D92D3
:102AC0008A95E1F742C086E0F801A6EFB1E00190F7
:102AD0000D928A95E1F75EC04D875E878D859E8554
:102AE0000E944C13811163CF8091FB018160809320
:102AF000FB01C8010E94DA124DC07A2DB98AA88A5A
:102B00006E2D89890E94511386E0F60111928A95F3
:102B1000E9F71BC0EE2009F461CF4D875E878D85F4
:102B20009E850E944C13F82E882309F457CF86E027
:102B3000F801A6EFB1E001900D928A95E1F786EFDA
:102B400091E00E94680F0E949F130E94911322C07F
:102B50004D875E878D859E850E943418292F22958A
:102B60002F70223028F49F7039F0811105C00BC0FE
:102B7000243028F49F7049F4805E883020F0C8012A
:102B80000E94DA129F2CF92C05C0F8019581907FE4
:102B900099F7F9CF8F2D61960FB6F894DEBF0FBE6F
:102BA000CDBFDF91CF911F910F91FF90EF90DF90FC
:102BB000CF90BF90AF909F9008951F93CF93DF93D6
:102BC000CDB7DEB72C970FB6F894DEBF0FBECDBFE2
:102BD0004F83588769877A878B879C87CE010796B2
:102BE0000E940B148823D1F09F8188852A853B851C
:102BF000232B31F08F3F31F481E09F3F19F403C064
:102C000081E001C080E080FD47C04F815885698523
:102C10007A858B859C850E9460133EC086E0FE010C
:102C20003796DE01119601900D928A95E1F7FF81AA
:102C3000E8856A857B856115710531F0EF3F31F4D8
:102C400081E0FF3F19F403C081E001C080E080FD16
:102C500023C02091C50130E0C901019687709927F2
:102C60004091C40150E084179507F1F1F983EA839C
:102C70007D836C8396E0929FD001939FB00D1124C9
:102C8000AA53BE4FFE01319601900D929A95E1F73D
:102C90008093C5010E94701316E08091C401909149
:102CA000C501891771F1189FC00111248A539E4FE5
:102CB0000E940B14882329F1E091C4011E9FF001AA
:102CC0001124EA53FE4F40815181628173818481D6
:102CD00095810E9460138091C40190E001968770F5
:102CE00099278093C401D9CF0E9424131092C50163
:102CF0001092C401E6EFF1E086E0DF011D928A95B3
:102D0000E9F72C960FB6F894DEBF0FBECDBFDF916A
:102D1000CF911F910895089508950C948C160C94EA
:102D20008D160E948F1660931E0270931F0280936F
:102D30002002909321020C940A130C9491160F9385
:102D40001F9300911E0210911F02209120023091CA
:102D50002102602B712B822B932B1F910F910C94CE
:102D600091160F931F9300911E0210911F02209144
:102D700020023091210260237123822393231F912B
:102D80000F910C9491160F931F9300911E021091B6
:102D90001F02209120023091210260277127822793
:102DA00093271F910F910C9491160C948C160E94EE
:102DB000D51660931A0270931B0280931C029093A5
:102DC0001D020C940A1360E070E0CB010C94D7163E
:102DD0000F931F9341E050E060E070E08A019B0197
:102DE00004C0000F111F221F331F8A95D2F7C9019B
:102DF000B8011F910F910C94D7160F931F9341E0C8
:102E000050E060E070E004C0440F551F661F771F5C
:102E10008A95D2F780911A0290911B02A0911C0210
:102E2000B0911D028A019B01082B192B2A2B3B2BE9
:102E3000C901B8011F910F910C94D7160F931F93DE
:102E400041E050E060E070E004C0440F551F661F91
:102E5000771F8A95D2F7409550956095709580912F
:102E60001A0290911B02A0911C02B0911D028A01CE
:102E70009B01082319232A233B23C901B8011F9171
:102E80000F910C94D7160F931F9341E050E060E030
:102E900070E004C0440F551F661F771F8A95D2F754
:102EA00080911A0290911B02A0911C02B0911D0208
:102EB0008A019B01082719272A273B27C901B80146
:102EC0001F910F910C94D7160F931F9300911A0224
:102ED00010911B0220911C0230911D02602B712B5E
:102EE000822B932B1F910F910C94D7160F931F9346
:102EF00000911A0210911B0220911C0230911D02B8
:102F000060237123822393231F910F910C94D71672
:102F10000F931F9300911A0210911B0220911C0223
:102F200030911D0260277127822793271F910F91EF
:102F30000C94D71608952CE0929F800D1124E82F51
:102F4000E695E695E695877051E001C0550F8A95A4
:102F5000EAF785E0E89FF0011124E450FE4F20E0FD
:102F600030E070E04081CB01022E02C0969587953B
:102F70000A94E2F7817081958427852384278193C1
:102F80002F5F3F4F2530310569F708952CE0929F60
:102F9000800D1124682F669566956695982F977019
:102FA00085E0689FB001112440E050E080E0FB0123
:102FB000E40FF51FE450FE4F208130E0092E02C0DF
:102FC000369527950A94E2F721703327042E01C025
:102FD000220F0A94EAF7822B4F5F5F4F453051056D
:102FE00031F70895BF92CF92DF92EF92FF920F9345
:102FF0001F93CF93DF938C01C0901A02D0901B02D5
:10300000E0901C02F0901D0280911E0290911F0220
:10301000A0912002B0912102C82AD92AEA2AFB2ACB
:10302000CFE1D0E0D701C6010C2E04C0B695A7951C
:10303000979587950A94D2F780FD04C0219790F761
:10304000B12C07C0BC2EB8018C2F0E94B60401978A
:10305000A9F38B2DDF91CF911F910F91FF90EF90EE
:10306000DF90CF90BF900895CF93DF93EC010E9443
:10307000F217BE010E94B604DF91CF9108951F930D
:10308000CF93DF93EB019091C301992321F0CB0102
:103090000E94341813C0882349F0CB010E94F21714
:1030A000182F682FCE010E949B1704C0CB010E94ED
:1030B000C617182FBE01812F0E94B604DF91CF9151
:1030C0001F91089580912202859585958595089593
:1030D000809122028770089590912202977081E07A
:1030E00009F480E00895CF9390913F0292FB22274C
:1030F00020F92817E1F0C82F892FC0FB82F98093AF
:103100003F0280913E0290913F020E94841980917B
:103110002F0280FF0CC01F92CF938FE293E09F930A
:103120008F930E9460030F900F900F900F90CF919C
:10313000089580913F0282FB882780F991E08927DA
:103140000C94731881E00C94731880E00C9473183D
:1031500080912E02089590912E02892B80932E0249
:103160000895809590912E02892380932E020895D0
:1031700010922E02089590912D02892B80932D029A
:103180000895809590912D02892380932D020895B2
:1031900010922D02089510922C020895809123021E
:1031A000089508950C94D1180C94D21890913F0270
:1031B00092FD08C090912302981721F0809323027A
:1031C0000C94D418089580912302882329F010923A
:1031D000230280E00C94D4180895E0910801F09146
:1031E000090180912E028083E0910801F09109018C
:1031F000908180912D02892B8083E0910801F091CC
:103200000901908180912C02892B80838091230277
:10321000882381F0E0910801F09109019081892BC8
:10322000808380910801909109010E940F1A8111F9
:103230000E94E31880910801909109010C94960D69
:103240000C94D11890913F0292FD10C098E0899F94
:1032500090011124262B209322020E94FD168091BA
:1032600022028595859585950C9420190C94FD1660
:103270001092220280E00C94201920912202809565
:10328000822380932202982F977041F430E0482FD8
:10329000082E000C550B2417350721F490913F029E
:1032A00092FF07C08595859585950E941E170C9401
:1032B000381908956FEF7FEF80E090E00C943A2387
:1032C00080E090E00E94162321E08A3E9E4F09F0A4
:1032D00020E0822F089582E090E00C940E2383E09A
:1032E00090E00C940E23CF9384E090E00E940E2394
:1032F000C82F82E290E00E940E232C2F30E0A9011B
:10330000582BCA01CF910895CF93C92F682F84E01D
:1033100090E00E941C236C2F82E290E0CF910C94ED
:103320001C23AB01BC018FE090E00C942E23AB0179
:10333000BC0183E190E00C942E2360E070E0CB01AF
:103340000C94971960E070E0CB010E9491190C94E5
:103350009D196AEE7EEF80E090E00E943A2360E0E3
:1033600082E090E00E941C2360E083E090E00E94F5
:103370001C2310921E0210921F0210922002109223
:10338000210260E084E090E00E941C2360E082E281
:1033900090E00E941C2360E085E090E00E941C23E6
:1033A00060E086E090E00E941C236FEF87E090E0F1
:1033B0000E941C2340E050E0BA0188E090E00E94A7
:1033C0002E2360E08DE090E00E941C2340E050E05E
:1033D000BA0188E190E00E942E2360E087E190E04E
:1033E0000E941C2340E050E0BA018CE190E00E9472
:1033F0002E2360E070E080E290E00E943A2340E0FB
:1034000050E0BA0188E190E00E942E230C94A219AA
:103410000C94A919682F8EE090E00C941C23FC01F9
:10342000329697E080E0915029F021912223D9F340
:103430008F5FF9CF0895662349F0FC013296089614
:103440002191621729F0E817F907D1F780E0089574
:1034500081E008959C01FC0132969FEF80E041914C
:10346000461789F09F3F19F4411101C0982F8F5FD3
:103470008630A9F79F3F39F0F901E90FF11D97FD5B
:10348000FA956283089508959C012A5F3F4FFC01DD
:103490004281461301C01282019682179307B9F741
:1034A00008950C942A1A0C94441A029626E0FC0102
:1034B00011922A95E9F7089508950C945C1A0C94DA
:1034C0005C1ACF930E945F1A0E9486070E945D1AC1
:1034D000C0E08C2F0E94CB06892B29F4CF5FC4302B
:1034E000C1F780E001C081E0CF9108950C945C1A8F
:1034F0000C94761A80915802843049F10E94781A0F
:1035000080E00E949A041092300220E488E190E06A
:103510000FB6F894A895809360000FBE20936000CA
:1035200083B7817F846083BF83B7816083BF7894D2
:10353000889583B78E7F83BF0FB6F894A895809146
:103540006000886180936000109260000FBE089553
:103550000C945C1A0E9424130E948A0D0E949A0403
:103560000C94A81A1F920F920FB60F9211248F93EA
:103570009F93AF93BF9380913002811113C08091CC
:10358000500290915102A0915202B0915302419683
:10359000A11DB11D8093500290935102A09352023D
:1035A000B0935302BF91AF919F918F910F900FBE37
:1035B0000F901F90189582E084BD93E095BD9AEF1F
:1035C00097BD80936E0008952FB7F89480915002B4
:1035D00090915102A0915202B09153022FBF0895D1
:1035E0002FB7F8946091500270915102809152026D
:1035F000909153022FBF08959C014FB7F89480918A
:10360000500290915102A0915202B09153024FBFCB
:10361000821B930B089578941F920F920FB60F920E
:1036200011248F939F93AF93BF93809150029091F9
:103630005102A0915202B09153020196A11DB11DF9
:103640008093500290935102A0935202B093530280
:10365000BF91AF919F918F910F900FBE0F901F90D0
:10366000189581E08093E00080E28093D80010926A
:10367000C9008FE19EE40197F1F700C0000087E0E8
:1036800090EBDC018093610290936202A09363024D
:10369000B09364029CE088E10FB6F894A8958093FB
:1036A00060000FBE90936000FFCF909397018093CE
:1036B0009601089580913C020895CF93DF9300D046
:1036C0001F92CDB7DEB790915802943019F58983D7
:1036D0007B836A8382E08093E9008FEF9091E8001A
:1036E000815095FD06C095ED9A95F1F70000811186
:1036F000F5CF8091E80085FF0DC040E050E063E029
:1037000070E0CE0101960E94371E8091E8008E770E
:103710008093E8000F900F900F90DF91CF91089564
:10372000BC0184E00C945D1BBC0183E00C945D1B28
:1037300022E02093E9002FEF3091E800215035FD81
:1037400006C035ED3A95F1F700002111F5CF209133
:10375000E80025FF0BC040E050E066E070E00E940A
:10376000371E8091E8008E778093E8000895CF930C
:10377000DF9321E02093E9002FEF3091E800215002
:1037800035FD06C035ED3A95F1F700002111F5CF72
:103790002091E80025FF14C0EC0140E050E068E013
:1037A00070E00E94371E8091E8008E778093E800D9
:1037B00088E0FE01A4E3B2E001900D928A95E1F762
:1037C000DF91CF91089589E693E00E94C70280912E
:1037D0005702811109C00E94C81F0E9425208091B4
:1037E000E20084608093E200089585E693E00E9401
:1037F000C70210925702089581E693E00C94C70225
:103800008DE593E00C94C70289E593E00C94C70220
:10381000209132022F5F822F62E30E94D4229923EB
:1038200019F02093320208951092320280913302EF
:10383000882371F180915802843041F58091E9002C
:103840008F702091EC00922F917020FD90E8892BD1
:1038500093E09093E9009091EB0090FF14C0909159
:10386000EE0097FF10C09091E80095FF03C0109202
:10387000F100F9CF9091E80090FF05C09091E80029
:103880009E779093E8008F708093E9001092330246
:10389000089542E061EC81E00E94411F42E261EC48
:1038A00082E00E94411F42E261EC83E00C94411FE0
:1038B00080915A02833009F460C030F4813071F095
:1038C000823009F499C008958A3009F485C08B309C
:1038D00009F46BC0893009F0A7C020C0809159025B
:1038E000813A09F0A1C08091E800877F8093E800C9
:1038F00080915D0290915E02892B21F468E084E35F
:1039000092E003C060E080E090E070E00E94821EE0
:103910008091E8008B778093E800089580915902A8
:10392000813209F081C080915D0290915E02029720
:1039300008F07AC08091E800877F8093E80080914A
:10394000E80082FD05C0809158028111F8CF6CC05B
:103950002091F3008091F20090E0922B029729F4DD
:103960008091F1008B7F813021F48091F100809370
:103970003C028091E8008B7753C080915902813AD4
:1039800009F052C080915D0290915E02892B09F08E
:103990004BC08091E800877F8093E8008091E80029
:1039A00080FFFCCF8091140136C080915902813292
:1039B000D9F580915D0290915E02892BA9F58091E5
:1039C000E800877F8093E8000E94761F80915B0269
:1039D000809314010C94241380915902813221F5B3
:1039E0008091E800877F8093E8000E94761F809195
:1039F0005C0280933D02089580915902813AA1F4BE
:103A00008091E800877F8093E8008091E80080FF44
:103A1000FCCF80913D028093F1008091E8008E7789
:103A20008093E8000C94761F08959FB7F894109245
:103A300033029FBF90915802943009F057C0909183
:103A4000E9009F703091EC00232F217030FD20E8B9
:103A5000922B23E02093E9002091EB0020FF43C04C
:103A60002091EE0027FF3FC020913102222321F058
:103A70002091E80025FF37C01092310226E03091F6
:103A8000E80035FD15C030915802343061F53091B1
:103A9000EB0035FD28C0215021F481E080933102F4
:103AA00022C0EFE9FFE03197F1F700C00000E7CF57
:103AB0008093F1008091E80085FD0AC08091E800C4
:103AC00080FFFCCF8091E8008E778093E80006C0ED
:103AD0008FB7F89421E0209333028FBF9F709093AB
:103AE000E90080E008959F709093E9008FEF0895BA
:103AF00084B7877F84BF0FB6F894A8958091600043
:103B0000886180936000109260000FBE90E080E8B2
:103B10000FB6F89480936100909361000FBE0E94ED
:103B2000420E0E94C81F0E9425208091E2008460FE
:103B30008093E20078940E94B9220E94500E8AE09D
:103B400091E00E94850D88E493E00E94C702809175
:103B500058028530C9F484E493E00E94C702809142
:103B60005802853079F40E947A1A8091560288238F
:103B7000B1F30E94611A882391F30E94211E0E94D2
:103B80002413EDCF0E94AA1A0E947E0E0E944C0EB2
:103B9000DECF0C94CB1D292F332723303105C9F0FC
:103BA00060F42130310581F02230310509F041C047
:103BB0008BE590E029E933E040C021323105E1F0A6
:103BC0002232310531F135C082E190E024EF33E05B
:103BD00034C099278130910549F028F0029749F5C2
:103BE000EDE6F3E005C0E5E9F3E002C0E3E8F3E069
:103BF000849190E09F0121C063307105D0F4660F7D
:103C0000771FFB01E057FE4F2081318189E090E072
:103C100014C06330710568F4FB01EE0FFF1FE65717
:103C2000FE4F20813181FB01E957FE4F808190E0FA
:103C300004C080E090E020E030E0FA01318320838E
:103C4000089580E189BD82E189BD09B400FEFDCF00
:103C50008091D8008F7D8093D8008091E0008260B1
:103C60008093E0008091E00081FDFCCF0895CF9229
:103C7000DF92EF92FF920F931F93CF93DF93EC01AC
:103C80008B017A010E94951F811133C0E114F10468
:103C900039F0F70180819181081B190BC80FD91FDA
:103CA000C12CD12C0115110519F18091E80085FD79
:103CB00016C08091E8008E778093E800E114F1044B
:103CC00049F0F70180819181C80ED91ED182C0824E
:103CD00085E00FC00E94951F882321F30AC08991B7
:103CE0008093F10001501109FFEFCF1ADF0ADACFFC
:103CF00080E0DF91CF911F910F91FF90EF90DF90C7
:103D0000CF90089520915F02309160022617370707
:103D100048F06115710539F42091E8002E77209361
:103D2000E80001C0B901FC0120E06115710579F1DD
:103D3000809158028823F1F18530F1F18091E800FB
:103D400083FD3CC08091E80082FD2EC08091E80098
:103D500080FFEBCF2091F3008091F20090E0922B56
:103D60006115710551F08830910538F42191209347
:103D7000F100615071090196F3CF21E0089709F035
:103D800020E08091E8008E778093E800CECF21116B
:103D9000CFCF0AC080915802882361F0853061F04E
:103DA0008091E80083FD0AC08091E80082FFF2CF95
:103DB00080E0089582E0089583E0089581E0089509
:103DC00020915F02309160022617370748F0611595
:103DD000710539F42091E8002E772093E80001C0A6
:103DE000B901FC0120E06115710591F18091580243
:103DF000882309F440C0853009F43FC08091E80071
:103E000083FD3DC08091E80082FD2FC08091E800D5
:103E100080FFE9CF2091F3008091F20090E0922B97
:103E20006115710559F08830910540F42491209373
:103E3000F1003196615071090196F2CF21E00897A7
:103E400009F020E08091E8008E778093E800CBCFE6
:103E50002111CCCF0AC080915802882361F08530AF
:103E600061F08091E80083FD0AC08091E80082FF44
:103E7000F2CF80E0089582E0089583E0089581E024
:103E80000895982F973068F59093E900981739F0C6
:103E90007091EC002091ED005091F00003C0242FB0
:103EA000762F50E021FD02C09F5FECCF3091EB00F8
:103EB0003E7F3093EB003091ED003D7F3093ED007D
:103EC0003091EB0031603093EB007093EC00209365
:103ED000ED005093F0002091EE0027FDE5CF80E04B
:103EE00008958F708093E90081E0089580915902D0
:103EF00087FF11C08091E80082FD05C080915802C3
:103F00008111F8CF11C08091E8008B770BC08091B0
:103F10005802882349F08091E80080FFF8CF809113
:103F2000E8008E778093E80008952091E4003091B6
:103F3000E50095E64091EC00842F817040FF23C09E
:103F40008091E80080FD1DC080915802882399F07F
:103F5000853099F08091EB0085FD11C04091E4001F
:103F60005091E5002417350729F3915011F09A017B
:103F7000E1CF84E0089582E0089583E0089581E030
:103F8000089580E008954091E80042FFDDCF089554
:103F90000E9436200E943E20E0EEF0E080818160A9
:103FA0008083E8EDF0E080818F77808319BCA7EDF6
:103FB000B0E08C918E7F8C9380818F7E8083109275
:103FC000570208950F931F93CF93DF930E943620DB
:103FD0000E943E20C8EDD0E088818F778883888159
:103FE0008068888388818F7D888319BC10925802ED
:103FF00010925402109256021092550200EE10E0F8
:10400000F80180818B7F808388818160888342E092
:1040100060E080E00E94411FE1EEF0E080818E7F51
:104020008083E2EEF0E0808181608083808188601F
:104030008083F80180818E7F80838881806188837E
:10404000DF91CF911F910F910895E8EDF0E080810D
:104050008F7E8083E7EDF0E080818160808384E063
:1040600082BF81E0809357020C94E21FE8EDF0E0FC
:1040700080818E7F80831092E20008951092DA0092
:104080001092E10008951F920F920FB60F92112423
:104090002F933F934F935F936F937F938F939F9350
:1040A000AF93BF93EF93FF938091E10082FF0BC02A
:1040B0008091E20082FF07C08091E1008B7F8093B6
:1040C000E1000E94081C8091DA0080FF1FC08091EF
:1040D000D80080FF1BC08091DA008E7F8093DA00C9
:1040E0008091D90080FF0DC080E189BD82E189BD4A
:1040F00009B400FEFDCF81E0809358020E94E31BCB
:1041000005C019BC109258020E94F51B8091E10075
:1041100080FF19C08091E20080FF15C08091E2000D
:104120008E7F8093E2008091E20080618093E200C4
:104130008091D80080628093D80019BC85E080937C
:1041400058020E94001C8091E10084FF30C08091E1
:10415000E20084FF2CC080E189BD82E189BD09B401
:1041600000FEFDCF8091D8008F7D8093D800809194
:10417000E1008F7E8093E1008091E2008F7E80934A
:10418000E2008091E20081608093E200809154021D
:10419000882311F084E007C08091E30087FD02C00E
:1041A00081E001C083E0809358020E94041C80914A
:1041B000E10083FF29C08091E20083FF25C0809148
:1041C000E100877F8093E10082E0809358021092A3
:1041D00054028091E1008E7F8093E1008091E200A3
:1041E0008E7F8093E2008091E20080618093E20004
:1041F00042E060E080E00E94411F8091F000886012
:104200008093F0000E94FC1BFF91EF91BF91AF9152
:104210009F918F917F916F915F914F913F912F91DE
:104220000F900FBE0F901F9018951F920F920FB610
:104230000F9211242F933F934F935F936F937F932C
:104240008F939F93AF93BF93CF93DF93EF93FF939E
:10425000C091E900CF708091EC00D82FD17080FD23
:10426000D0E81092E9008091F000877F8093F00001
:1042700078940E9459211092E9008091F0008860A2
:104280008093F000CD2BCF70C093E900FF91EF91A8
:10429000DF91CF91BF91AF919F918F917F916F915E
:1042A0005F914F913F912F910F900FBE0F901F90F4
:1042B00018951F93CF93DF93CDB7DEB7AA970FB6AC
:1042C000F894DEBF0FBECDBFE9E5F2E08091F100CA
:1042D000819322E0E136F207C9F70E94581C8091D1
:1042E000E80083FF2EC18091590290915A02492F14
:1042F00050E04A30510508F024C1FA01E059FF4F5F
:104300000C94F422803821F0823809F01AC108C0D8
:104310008091550290915602992389F082600FC0D6
:1043200080915D028F70873008F00BC18093E900A7
:104330008091EB0085FB882780F91092E90090912D
:10434000E800977F9093E8008093F1001092F100CD
:10435000D1C0282F2D7F09F0F4C0882319F08230B6
:1043600061F0EFC080915B02813009F0EAC09330C8
:1043700009F080E0809356022EC080915B0281118B
:104380002AC080915D028F702FEF280F263008F031
:10439000D8C08093E9002091EB0020FF1CC093302F
:1043A00021F48091EB00806214C09091EB00906149
:1043B0009093EB0021E030E0A90102C0440F551FAB
:1043C0008A95E2F74093EA001092EA008091EB00B0
:1043D00088608093EB001092E9008091E800877F6D
:1043E0008093E8000E94761FACC08111AAC0109192
:1043F0005B021F778091E3008078812B8093E3003C
:104400008091E800877F8093E8000E94761F80916A
:10441000E80080FFFCCF8091E30080688093E30098
:10442000111102C082E001C083E08093580289C06C
:104430008058823008F085C080915B0290915C02C8
:104440008C3D53E0950779F583E08A838AE289837E
:104450004FB7F894DE01139620E03EE051E2E32FDF
:10446000F0E050935700E49120FF03C0E295EF7015
:104470003F5FEF708E2F90E0EA3010F0C79601C0DA
:10448000C0968D939D932F5F243149F74FBF809144
:10449000E800877F8093E8006AE270E0CE01019631
:1044A0000E94821E16C060915D0270915E02AE0194
:1044B0004F5F5F4F0E94C91DBC01892B09F441C0A9
:1044C0009091E800977F9093E80089819A810E94FB
:1044D000E01E8091E8008B778093E80032C080383E
:1044E00081F58091E800877F8093E80080915402F5
:1044F0008093F1008091E8008E7772CF811121C006
:1045000080915B0290915C0299270297D4F480918C
:10451000E800877F8093E80080915B0280935402DB
:104520000E94761F80915402811106C08091E300A1
:1045300087FD02C081E001C084E0809358020E94A0
:10454000491C8091E80083FF0AC08091E800877FC2
:104550008093E8008091EB0080628093EB00AA9644
:104560000FB6F894DEBF0FBECDBFDF91CF911F9184
:104570000895CF93809158028823A1F0C091E9005B
:10458000CF709091EC00892F817090FD80E8C82B4E
:104590001092E9008091E80083FD0E945921CF70BC
:1045A000C093E900CF910895991B79E004C0991F49
:1045B000961708F0961B881F7A95C9F7809508957D
:1045C00097FB072E16F4009407D077FD09D00E94C0
:1045D000FA2207FC05D03EF4909581959F4F0895EF
:1045E000709561957F4F0895EE0FFF1F0590F49130
:1045F000E02D0994AA1BBB1B51E107C0AA1FBB1FDA
:10460000A617B70710F0A61BB70B881F991F5A955E
:10461000A9F780959095BC01CD010895F999FECF39
:1046200092BD81BDF89A992780B50895A8E1B0E0C0
:1046300042E050E00C944223262FF999FECF92BD20
:1046400081BDF89A019700B4021639F01FBA20BD57
:104650000FB6F894FA9AF99A0FBE08950396272F89
:104660000E941D230E941C23252F0E941D23242FFE
:104670000C941D230196272F0E941D230C941C23AC
:10468000DC01CB01FC01F999FECF06C0F2BDE1BD12
:10469000F89A319600B40D9241505040B8F7089501
:0446A000F894FFCFBC
:1046A4002808641E140A321E24025A1BB71B981BC6
:1046B400941B901B01E200E900EA00B500B600B7C4
:1046C40000CD008301CC008A0192019401210223D0
:1046D4000224022502260227022A02B300B4006F34
:1046E400007000818283F6F5973435369192939564
:1046F4009496F0F1F4F7E200E900EA00B500B600A0
:10470400B700CD008301CC008A01920194012102FB
:10471400230224022502260227022A02B300B4003F
:104724006F007000818283407B22A3042804060466
:06473400AB03C403DD032A
:00000001FF
