:100000000C9480020C94C7020C94C7020C94C70293
:100010000C94C7020C94C7020C94C7020C94C7023C
:100020000C94C7020C94C7020C94C9200C949B2119
:100030000C94381B0C94C7020C94C7020C94C70292
:100040000C94C7020C94C7020C94C7020C94C7020C
:100050000C94C7020C94911B0C94C7020C94C70219
:100060000C94C7020C94C7020C94C7020C94C702EC
:100070000C94C7020C94C7020C94C7020C94C702DC
:100080000C94C7020C94C7020C94C7020C94C702CC
:100090000C94C7020C94C7020C94C7020C94C702BC
:1000A0000C94C7020C94C7020C94C7026B116B111D
:1000B0009D119D11EA1108121C131C131312AC128E
:1000C000BD12BD12BC13BC13CE13CE13C513CE1379
:1000D000CE13CE13BC13BC13CA13CE13CE13CA1344
:1000E00008222F2227232F2227237B229E22272309
:1000F000F52204234B4C3A206B633A2030782530AC
:1001000034582C20636F6C3A2025752C20726F7741
:100110003A2025752C20707265737365643A20252A
:10012000622C2074696D653A2025752C20696E74E7
:100130006572727570743A2025622C20636F756E3B
:10014000743A2025750A002B0014001A00080015C7
:100150000017001C0018000C00120013002A0016E3
:100160005C04001600070009000A000B000D000ED9
:10017000000F0033003400E1001D001B00060019D1
:1001800000050011001000360037003800DA5CE08E
:10019000000000E300F65C01512A002C000251F738
:1001A0005CE4000000AE0035021E021F02200221A6
:1001B000022202230224022502260227024C00AA60
:1001C000000000000000000000000000002D022ED2
:1001D000022F0230023102E100C65CC75CC85C003D
:1001E00000000000000000000000000000DA5CE0F9
:1001F0000000008100800001002A002C0001004A5C
:10020000004D000000005C165C1E001F0020002155
:10021000002200230024002500260027002A0029B0
:10022000003A003B003C003D003E003F00560067A6
:10023000002F0030003100E1004000410042004347
:1002400000440045005000510052004F00DA5CE0CD
:10025000000000E300F65C01002A002C0001004BC6
:10026000004E000000E30044454255473A206469CF
:100270007361626C65642E0A0044454255473A201A
:10028000656E61626C65642E0A000A0025303136A5
:1002900062003A200025303258000A722F63203065
:1002A0003132333435363738394142434445460AD2
:1002B00000290A002575002F002575005D280025FE
:1002C00064002000256400200025640020002564CF
:1002D000007C0025303258006D6F7573656B657951
:1002E000205B62746E7C782079207620685D2872AD
:1002F00065702F61636C293A205B000A002530325B
:100300005820006B6579626F6172645F7265706F0F
:1003100072743A20000A0025303258006B65796209
:100320006F6172645F7365745F6C65643A20006D21
:100330006174726978207363616E2066726571758D
:10034000656E63793A20256C750A004F6E65736897
:100350006F743A206163746976653A2025640A00F7
:100360005B735D004B6579626F61726420737461C9
:1003700072742E0A005B575D005B535D005B525D3B
:10038000005B445D005B435D001403730070006517
:10039000006C0075006E006B0065007200000010BC
:1003A000037300650061006C0061006E0064000072
:1003B000000403090409025B00030100A0FA090418
:1003C0000000010301010009211101000122400088
:1003D0000705810308000A09040100010300000069
:1003E000092111010001227B000705820320000A78
:1003F000090402000203000000092111010001228A
:1004000022000705830320000107050303200001E4
:100410001201100100000008EDFE000001000102C1
:1004200000010631FF0974A1010975150026FF00BE
:100430009520750881020976150026FF0095207524
:10044000089102C005010902A10185020901A1006C
:100450000509190129081500250195087501810272
:100460000501093009311581257F9502750881063E
:1004700009381581257F950175088106050C0A3814
:10048000021581257F950175088106C0C005010907
:1004900080A101850319012AB700150126B700952F
:1004A0000175108100C0050C0901A1018504190125
:1004B0002AA002150126A002950175108100C00531
:1004C000010906A101050719E029E7150025019595
:1004D0000875018102950175088101050719002938
:1004E000FF150026FF009506750881000508190113
:1004F0002905950575019102950175039101C000CB
:1005000011241FBECFEFDAE0DEBFCDBF04B603FE7D
:1005100027C080916D0290916E02A0916F02B09100
:1005200070028730904BA740B04BD1F410926D020F
:1005300010926E0210926F021092700214BE84B775
:10054000877F84BF0FB6F894A8958091600088617A
:1005500080936000109260000FBEE0E0F8E3099520
:1005600011E0A0E0B1E0E0EBF7E402C005900D92ED
:10057000A639B107D9F722E0A6E9B1E001C01D9282
:10058000AD36B207E1F70E94FE1D0C94D6230C9401
:100590000000FF93EF93E0919601F091970130975F
:1005A00009F00995EF91FF910895FC018591803044
:1005B00011F0EFDFFBCF0895FF27E0E230E247FFC5
:1005C0000CC0419597FF09C0EDE26095709580954C
:1005D0009095611D711D811D911D27FF02C0219500
:1005E00030E350E2AA27660F771F881F991FAA1FC2
:1005F000A41710F0A41B63955A95A9F7AA3008F028
:10060000A95FA05DAF93F395611571058105910513
:1006100041F7ED3211F4EF93F395F21718F43F938D
:10062000F395FBCF8F91B5DFFA95E1F70895E99146
:10063000F9918591803021F0853219F0AADFF9CF48
:10064000089520E0E89455915532C1F3503311F4E8
:10065000689455915A3348F4505390F3220F022E68
:10066000220F220F200D250FF4CF0EF42195899132
:100670009991533619F3533729F1533559F1BC0188
:1006800088279927E8945C3621F489919991689498
:100690005591543639F446EF7EF077FF0DC08FEF59
:1006A0009FEF0AC055374AE039F0583540E121F054
:1006B000523642E009F00895FF93EF937DDFEF910A
:1006C000FF91B7CFFF93EF93FC0181918030B9F395
:1006D00060DFFBCFFF93EF9368DFF1CFDF93CF9322
:1006E000CDB7DEB72596A3DFCF91DF910895809136
:1006F0003B028160826080933B020895FB0125816B
:1007000022952F701F922F93258121701F922F9376
:1007100024812F9323812F9322811F922F93218154
:100720001F922F9320811F922F939F938F9384EF7B
:1007300090E09F938F930E946E038DB79EB7409673
:100740000FB6F8949EBF0FBE8DBF81E0089581E083
:1007500008950C947E0308950C94AB031F93CF93DC
:10076000DF9300D000D01F92CDB7DEB749835A8304
:100770006B833091CF0189819A81311114C0662336
:1007800059F0222349F00E947818182F682F898188
:100790009A810E94211803C00E944C18182F698169
:1007A0007A81812F04C00E94781869817A810F9024
:1007B0000F900F900F900F90DF91CF911F910C949D
:1007C000B104FC01262F40815181628173818481B3
:1007D0000C94AE03CF93DF93EC0160E00E94E10341
:1007E000BE01DF91CF910C94AC030E94B5060C942E
:1007F00038070C94340708950E94AA130E94FB0343
:100800002FEF84E39CE0215080409040E1F700C04E
:1008100000000C94B71B0F931F93CF93DF938C01B1
:1008200061E00E94E103EC01B8010E94A903882362
:1008300009F45BC0B801CE010E94E50B882309F4DE
:1008400054C0B801CE010E94370C882309F44DC072
:10085000B801CE010E94620D882309F446C0F80158
:1008600082818823D9F1CF3D8CE5D80779F140F416
:10087000C115FCE5DF0791F0C130DC4591F02EC0D9
:10088000CC35EDE5DE0741F1CD35FDE5DF0709F1BA
:10089000CB35DD4519F50E94281920C00E94FC03C4
:1008A00024C080913B02C82FC095C170C0FB80F965
:1008B00080933B02CC2329F089E792E00E94D50285
:1008C00014C087E692E00E94D50210C00E948E1AE2
:1008D0000CC00E941F1902C00E942B19C801DF9191
:1008E000CF911F910F910C94A703C0E08C2FDF9143
:1008F000CF911F910F9108958295982F937344E0A3
:10090000949F900111248C7C86958695282B822FAC
:100910008575880F2A7A2695822B0895CF93DF93C9
:10092000D92F0E947C04C82F8D2F0E947C042C2F6D
:1009300030E0322F2227A901482BCA01DF91CF9145
:10094000089508950C94A10481E008950C94A404E2
:10095000CF93C82F0E94A2048C2F0E94A604CF918F
:10096000089520E3829FC0011124FC012CE0729FB6
:10097000E00DF11D1124E60FF11DEE0FFF1FE95BE5
:10098000FE4F859194910895CF93DF930E94B10417
:100990000E94C605EC01811521E5920708F043C0CD
:1009A000811540E5940708F08AC0883E910520F53E
:1009B000803E910508F0E6C0883A910570F4853ACA
:1009C000910508F074C08130910509F4DBC008F48A
:1009D000D7C0049708F0D6C0D3C08F3B910508F06C
:1009E000CFC0C85AD0E0CC0FDD1FCB5EDE4F0990E0
:1009F000D881C02DD464C6C0C11580E2D80758F490
:100A0000C11521E0D20708F0BDC0CD3ED10508F4E4
:100A1000B7C0D065B7C0C11540E4D40708F4B0C072
:100A2000DF70D06AAFC0C11585E5D807A0F4C11545
:100A300024E5D20708F08AC0C11543E5D40708F0C1
:100A40006FC0C11582E5D80708F054C0DC2FCC2751
:100A5000C16FD06A97C0C11529E5D207A0F4C115AE
:100A600048E5D40708F077C0C11586E5D80708F037
:100A700087C08C2F0E945A068F71C82FD0E0DC2FC0
:100A8000CC27D0627FC0C1152AE5D20708F468C020
:100A9000CE0190568115904208F072C08D2F8F7153
:100AA0000E945A06DD27D0628F71D82B6BC0C55AC1
:100AB000D0E0CD5BDE4FC881D0E0D06463C074E08D
:100AC000969587957A95E1F783709C2F937021E036
:100AD00030E002C0220F331F9A95E2F73C68382BB2
:100AE000CF70C695C69580E2C89FE0011124C22B45
:100AF000D32B48C0CE018370992721E030E002C09B
:100B0000220F331F8A95E2F78C2F8695869540E257
:100B1000849FC0011124E901C82BD92BDC6832C0A5
:100B2000CE018370992721E030E002C0220F331FED
:100B30008A95E2F78C2F8695869540E2849FC001C6
:100B40001124E901C82BD92BDA681CC0DC2FCC2773
:100B5000C46FD06A17C0DC2FCC27C06FD06A12C018
:100B60008C2F8F700E945A0694E0D695C7959A955F
:100B7000E1F7CF70D0E0DC2FCC27D069C82B02C0C2
:100B8000C0E0D0E0CE01DF91CF9108958238910589
:100B900069F1B0F48133910509F46DC048F48932EC
:100BA000910509F463C08A32910509F469C008957A
:100BB0008533910509F455C089339105B9F008953D
:100BC000833E910569F138F4803E9105B1F0823E93
:100BD000910509F10895863E9105A9F1873E910599
:100BE000B9F1843E910509F064C023C020914A0206
:100BF00020FD4FC021FD4DC0089580914A0280FD27
:100C000044C080914B0280FF44C080914A0284FD21
:100C100042C083EE4DC080914A0282FF38C0F5CFBA
:100C200080914A0282FD33C080914B0280FD31C029
:100C3000ECCF80914B0281FF32C080914A0284FD4B
:100C40002AC087EE35C080914A0283FF26C0F5CFC7
:100C500080914A0283FD21C080914B0281FD1FC01B
:100C6000ECCF80914A0285FD1CC01DC080914A02D4
:100C700085FD19C016C080914A0286FD16C017C0B6
:100C800080914A0286FD13C010C089E311C082EE34
:100C90000FC080EE0DC080E00BC086EE09C084EE70
:100CA00007C089E205C085E303C08AE201C081E391
:100CB00090E0089590914A0292FF0DC0282F28716C
:100CC000283019F4877F846006C0282F24712430CF
:100CD00011F48B7F886093FF0DC0282F2871283175
:100CE00019F4877E846106C0282F2471243111F401
:100CF0008B7E886120914B0220FF0DC0382F387108
:100D0000383019F4877F816006C0382F3171313057
:100D100011F48E7F886021FF0DC0282F28712831A3
:100D200019F4877E816106C0282F2171213111F4C9
:100D30008E7E886194FD877E08950C94E0190E9450
:100D400094078FE39CE90197F1F700C000000E942F
:100D5000940780E00E94D90680FF04C00E949D068F
:100D60000C94B71B08950C949F060E94E6198111FC
:100D700002C00E948E1A0E94F11980933B020E94C9
:100D8000F91990934B0280934A020E94B3060E9485
:100D9000F519682F70E080E090E00E9423176091C1
:100DA00026027091270280912802909129020C94CA
:100DB0005B17E82FF0E0EE0FFF1FEC5AFD4F80812C
:100DC00091810895CF92DF92EF92FF920F931F933C
:100DD000CF93DF938AE992E00E94D50284E5E82E62
:100DE00082E0F82EC0E0D0E095E9C92E92E0D92E3D
:100DF0000CE812E0DF93CF93DF92CF920E946E0354
:100E000082E992E00E94D502F701819191917F01E0
:100E10000E948E049F938F931F930F930E946E03E3
:100E20008AE892E00E94D50221968DB79EB7089677
:100E30000FB6F8949EBF0FBE8DBFC430D105D1F65A
:100E4000DF91CF911F910F91FF90EF90DF90CF90A6
:100E5000089580EA8A95F1F7089500C008950C94EA
:100E6000290708950C9431070C9432070C9431072C
:100E70000C943607F894E82FE295EF70F0E031A17A
:100E8000282F2F7081E090E001C0880F2A95EAF7A3
:100E9000982F9095932391A392A1892B82A3789464
:100EA00008950F931F93CF93DF9380EF0E943A072B
:100EB00081EF0E943A0784EF0E943A0787EF0E9471
:100EC0003A07C6E4D1E002E511E089910E943A07B1
:100ED0000C171D07D1F710924D0210924C02109280
:100EE00055021092540210924F0210924E0210922C
:100EF0005702109256021092510210925002109214
:100F000059021092580210925302109252021092FB
:100F10005B0210925A0284E00E942208DF91CF9176
:100F20001F910F910C94F5037F928F929F92AF9235
:100F3000BF92CF92DF92EF92FF920F931F93CF93C6
:100F4000DF93C2E5D1E08CE4A82E82E0B82E94E5D0
:100F5000E92E92E0F92E712C01E010E06E018881FB
:100F6000F894E82FE295EF70F0E021A18F70A801CE
:100F700002C0440F551F8A95E2F7CA01922F982BA1
:100F800091A392A18095892382A378940E942D0732
:100F9000E6E4F1E020E030E0812C912C4191A42F97
:100FA000A295AF70B0E090968C9190E04F7002C027
:100FB000959587954A95E2F780FD08C0C801022EF5
:100FC00002C0880F991F0A94E2F702C080E090E007
:100FD000882A992A2F5F3F4F2C303105F9F6219648
:100FE000F60180810E943A070E942F07F501808157
:100FF00091818816990621F09182808281E001C05A
:1010000080E0782AF2E0AF0EB11CEA14FB0409F08C
:10101000A5CF272D44E064E572E08CE492E00E94C5
:1010200023080E94F903872DDF91CF911F910F9123
:10103000FF90EF90DF90CF90BF90AF909F908F90F8
:101040007F9008950895FF920F931F93CF93DF939E
:10105000F82E092F162FD72FC42F222349F081E015
:1010600080939A010E946A1B909399018093980142
:1010700080919A018823D9F08091980190919901EB
:101080000E94821B069798F0EF2DF02FA12FBD2F05
:1010900080E090E04C2F50E08417950734F42191C4
:1010A00031912D933D930196F7CF10929A01DF91E4
:1010B000CF911F910F91FF9008958091A10180FF22
:1010C0000BC06091050185E0689FB0011124759502
:1010D0006795759567952BC081FF09C060910501E3
:1010E00085E0689FB00111247595679520C082FF47
:1010F00007C06091050185E0689FB001112417C009
:101100009091A0019923D1F060910401961788F77E
:101110002091050185E0289F90011124929FA00154
:10112000939F500D112470E0CA010E94662360381D
:10113000710540F46115710519F406C065E070E0B1
:10114000862F08958FE7089581E008958091A10189
:1011500080FF08C06091010170E0759567957595F5
:10116000679521C081FF06C06091010170E075950F
:10117000679519C082FF04C06091010170E010C042
:1011800090919F01992399F0609100019617A0F723
:1011900080910101899FC001112470E00E946623A3
:1011A0006038710540F46115710519F406C061E0FD
:1011B00070E0862F08958FE7089581E008958D3EB1
:1011C00021F40E945D08819504C08E3E29F40E949E
:1011D0005D088093A50108958F3E21F40E945D086B
:1011E000819504C0803F29F40E945D088093A4018A
:1011F0000895893F19F40E94A60805C08A3F31F47A
:101200000E94A60881958093A60108958B3F21F442
:101210000E94A608819504C08C3F29F40E94A6086C
:101220008093A70108959FE0980F983078F421E00B
:1012300030E0A90102C0440F551F9A95E2F7CA0198
:101240009091A301892B8093A30108958D3F21F4F0
:101250008091A10181600BC08E3F21F48091A1019A
:10126000826005C08F3F29F48091A1018460809342
:10127000A10108958D3E39F49091A50197FF35C0E5
:101280001092A50159C08E3E29F49091A50119161E
:10129000BCF32BC09091A4018F3E29F497FF25C089
:1012A0001092A40149C0803F19F41916CCF31DC057
:1012B0009091A601893F29F41916BCF41092A60159
:1012C0003BC08A3F19F497FF10C0F8CF8B3F39F429
:1012D0009091A70197FF09C01092A7012DC08C3FE4
:1012E00021F49091A7011916BCF39FE0980F983054
:1012F00080F421E030E0A90102C0440F551F9A9507
:10130000E2F7CA0180959091A30189238093A301FC
:1013100013C08D3F21F48091A1018E7F0BC08E3FC1
:1013200021F48091A1018D7F05C08F3F29F4809128
:10133000A1018B7F8093A1018091A401811106C03E
:101340008091A501811102C01092A0018091A60197
:10135000811106C08091A701811102C010929F01E6
:10136000089580913B0283FF7EC088ED92E00E9449
:10137000D5028091A3011F928F9383ED92E09F93FA
:101380008F930E946E0381ED92E00E94D5028091BE
:10139000A401282F082E000C330B3F938F938EEC63
:1013A00092E09F938F930E946E038CEC92E00E94D8
:1013B000D5028091A501282F082E000C330B3F93F6
:1013C0008F9389EC92E09F938F930E946E0387EC3A
:1013D00092E00E94D5028091A601282F082E000CD1
:1013E000330B3F938F9384EC92E09F938F930E94F3
:1013F0006E0382EC92E00E94D5028091A701282F13
:10140000082E000C330B3F938F938FEB92E09F934A
:101410008F930E946E038CEB92E00E94D502809124
:10142000A0011F928F9389EB92E09F938F930E946C
:101430006E0387EB92E00E94D5028091A1011F927A
:101440008F9384EB92E09F938F930E946E0381EBC6
:1014500092E00E94D5028DB79EB74C960FB6F894D5
:101460009EBF0FBE8DBF0E946A1B2091A401211157
:1014700004C02091A501222321F090939E01809326
:101480009D012091A601211104C02091A7012223D2
:1014900021F090939C0180939B0182EA91E00C944F
:1014A000ED0DEF92FF920F931F93CF93DF9300D038
:1014B00000D000D0CDB7DEB786E0E2EAF1E0DE0191
:1014C000119601900D928A95E1F7E090A401F090B9
:1014D000A5010091A6011091A7011092A4011092FC
:1014E000A5011092A6011092A701E11003C0FF20F0
:1014F00009F45DC080919D0190919E010E94821B24
:10150000AC019091A001992339F02091060130E0BF
:101510002417350758F04BC0209107018AE0289F17
:10152000900111242417350718F041C09F3F19F08E
:101530009F5F9093A001EE2061F00E945D081E1451
:1015400014F09FEF01C091E0989F902D112490938B
:10155000A401FF2061F00E945D081F1414F09FEFAA
:1015600001C091E0989F902D11249093A501309196
:10157000A4013323E1F02091A5012223C1F045EB22
:101580003403C0011124992319F09093A40103C0DE
:1015900081E08093A40135EB2303C001112499233A
:1015A00019F09093A50103C081E08093A50101117A
:1015B00003C0112309F45DC080919B0190919C01AF
:1015C0000E94821BAC0190919F01992339F02091D8
:1015D000020130E02417350758F04BC02091030179
:1015E0008AE0289F900111242417350718F041C084
:1015F0009F3F19F09F5F90939F01002361F00E942D
:10160000A608101614F09FEF01C091E0989F902D4E
:1016100011249093A601112361F00E94A6081116CF
:1016200014F09FEF01C091E0989F902D11249093AA
:10163000A7013091A6013323E1F02091A7012223D5
:10164000C1F045EB3403C0011124992319F09093A4
:10165000A60103C081E08093A60135EB2303C001FE
:101660001124992319F09093A70103C081E080937E
:10167000A7018091A40181110BC08091A501811166
:1016800007C08091A601811103C08091A70181113B
:101690000E94B109EB82FC820D831E8386E0FE016D
:1016A0003196A2EAB1E001900D928A95E1F7269673
:1016B0000FB6F894DEBF0FBECDBFDF91CF911F9163
:1016C0000F91FF90EF900895E2EAF1E086E0DF01EC
:1016D0001D928A95E9F71092A00110929F01109235
:1016E000A10108950F931F93CF93DF93C42FD22F9F
:1016F000FC0182818823C9F04093AA010E946A1BE1
:101700009093A9018093A80180E28C0F883008F0A3
:1017100057C0C77081E001C0880FCA95EAF7DF9112
:10172000CF911F910F910C9426118091AA0148131B
:1017300030C08091A8019091A9010E94821B883C31
:10174000910538F510E21D0FCD17B9F080E28C0F2E
:10175000883040F4C77081E001C0880FCA95EAF76D
:101760000E942D11183028F581E09D2F977001C03F
:10177000880F9A95EAF70E942611802F0E941D116A
:101780001830F0F4D77081E001C0880FDA95EAF7DD
:101790000AC080E28C0F883098F4C77081E001C0E5
:1017A000880FCA95EAF7DF91CF911F910F910C94A2
:1017B0002D11802FDF91CF911F910F910C941D114E
:1017C000DF91CF911F910F9108950F939C01CB0151
:1017D000243F4CE5340731F188F4293DFCE53F070F
:1017E000D9F02A3D4CE5340779F1283D3C45A9F56F
:1017F00006E221EE41EE68ED7CE52BC0263FFCE5DC
:101800003F07E1F0A8F0273F3C4539F507E225EE18
:1018100046EE67EF7CE51DC007E225EE45EE69ED7B
:101820007CE517C006E221EE40EE64EF7CE511C0D6
:1018300007E225EE44EE65EF7CE50BC006E221EE03
:1018400042EE66EF7CE505C008E221E045EE6AED78
:101850007CE50E94720B80E008C0FC018281882335
:1018600019F01092AA0101C081E00F910895CF9361
:10187000DF93EC01FB018281882309F41FC1C23090
:10188000FCE5DF0708F41BC1C6319CE5D90738F039
:101890009E012B5F3C452930310508F010C10E94A4
:1018A000F91990934B0280934A02C031ECE5DE07B0
:1018B00009F4C3C008F041C0C8308CE5D80709F46A
:1018C0009AC0F0F4C430ECE5DE0709F487C068F490
:1018D000C2308CE5D80709F477C0C330DC4509F085
:1018E000E3C080914A02826076C0C630ECE5DE0734
:1018F00009F46EC008F07BC080914A0288606BC01A
:10190000CC308CE5D80709F485C068F4CA30ECE522
:10191000DE0709F474C008F079C00E94AA13809110
:101920004A02806858C0CE308CE5D80709F476C0EA
:1019300008F07FC080914A028BC0CC3FECE5DE0707
:1019400009F44FC018F5C3318CE5D80709F47DC000
:1019500078F4C131ECE5DE0709F473C0C231DC452F
:1019600009F0A2C00E94AA1380914A028F7733C067
:10197000C5318CE5D80709F472C008F486C0CB3FA6
:10198000DC4509F091C080914B023EC0C115FDE5D8
:10199000DF0709F45FC058F4CE3F9CE5D90709F48E
:1019A00044C008F43FC080914B0282602DC0C23019
:1019B000FDE5DF0709F475C008F45DC0C330DD45FF
:1019C00009F072C080E06EC080914A02816003C05D
:1019D00080914A02806180934A0266C080914A02E7
:1019E00011C080914B02826080934B025DC0809158
:1019F0004A028062F0CF80914A028064ECCF8091ED
:101A00004A0288608460E7CF8160EECF80914A020D
:101A10008E7FE1CF80914A028D7FDDCF80914A0297
:101A2000877FD9CF80914B0218C080914B028D7F68
:101A3000DBCF80914A028F7ECECF80914A028F7D8C
:101A4000CACF80914A028F7BC6CF80914A02877F9E
:101A50008B7FC1CF80914B028D7F8E7FC5CF8091D0
:101A60004A0282FB222720F991E0922790FB82F91B
:101A700090FB83F9B0CF80914B02982F9095917095
:101A80008E7F892B90FB81F9AFCF0E94AA138091A2
:101A90004A0287FB222720F991E0922790FB87F9E1
:101AA0009ACF81E00E94901A80914A0290914B0255
:101AB0000E940A1A0E94AA1380E001C081E0DF910F
:101AC000CF910895CF93DF9386319C4541F5EB018B
:101AD0000E942E19982F8A812091080130910901C6
:101AE000882379F09A7A81E009F480E08093AB0151
:101AF000911102C069E201C065E3C9010E94D71AD1
:101B00000AC08091AB01811102C069E201C065E3A6
:101B1000C9010E94D91A0E94731980E001C081E0B6
:101B2000DF91CF9108959093B1018093B001089512
:101B3000E091B001F091B101309721F00190F08176
:101B4000E02D099480E00895EF92FF920F931F9388
:101B5000CF93DF93E091B001F091B1013097B1F1F3
:101B60008C010280F381E02D099580913B0282FF78
:101B70002DC080FF04C083E093E00E94D502E801FD
:101B800018E08DEFE82E82E0F82E80913B0280FF76
:101B90000BC088811F928F93FF92EF920E946E0379
:101BA0000F900F900F900F90115021961111EDCFC3
:101BB00080913B0280FF0AC08BEF92E0DF91CF91D2
:101BC0001F910F91FF90EF900C94D502DF91CF9170
:101BD0001F910F91FF90EF900895E091B001F09167
:101BE000B101309739F022E0DC012C930480F581BB
:101BF000E02D099408952091AE013091AF0128178E
:101C0000390771F09093AF018093AE01E091B0017C
:101C1000F091B101309721F00680F781E02D099411
:101C200008952091AC013091AD012817390771F06A
:101C30009093AD018093AC01E091B001F091B101BE
:101C4000309721F00084F185E02D099408950E94D9
:101C5000761B6093CB017093CC018093CD01909360
:101C6000CE016093C7017093C8018093C90190931E
:101C7000CA010895CF92DF92EF92FF928091BF0147
:101C80009091C001A091C101B091C2010196A11D26
:101C9000B11D8093BF019093C001A093C101B09387
:101CA000C2010E94761B6B017C018091C30190915F
:101CB000C401A091C501B091C601A7019601281BDE
:101CC000390B4A0B5B0BDA01C901893E9340A10530
:101CD000B105E0F180913B0280FF18C08091C20104
:101CE0008F938091C1018F938091C0018F938091D8
:101CF000BF018F938FE293E09F938F930E946E03B7
:101D00000F900F900F900F900F900F908091BF0148
:101D10009091C001A091C101B091C2018093BB011B
:101D20009093BC01A093BD01B093BE01C092C301CA
:101D3000D092C401E092C501F092C6011092BF0199
:101D40001092C0011092C1011092C201FF90EF9059
:101D5000DF90CF90089585B7806885BF85B780688C
:101D600085BF089581E008950C94B20E08950C94F7
:101D7000B60E0C9477030C94B60E0C94BB0E0C9418
:101D8000B60E0E94AB0E8BE99DE10E94DB1B0E9408
:101D9000BF0E0C94BD0E0E94B70E0C94B60E0E949E
:101DA000611B0E94510780913B02816080933B023E
:101DB0000C94B90ECF93C82F80913B0282FF1EC0B6
:101DC00080FF04C08CE193E00E94D50280913B0229
:101DD00080FF0CC01F92CF9387E193E09F938F9376
:101DE0000E946E030F900F900F900F9080913B0216
:101DF00080FF04C085E193E00E94D5028C2FCF9133
:101E00000C94A8046F927F928F929F92AF92BF9290
:101E1000CF92DF92EF92FF920F931F93CF93DF93B6
:101E2000CDB7DEB72A970FB6F894DEBF0FBECDBF91
:101E30000E94940781110E94270E33EB832E31E01C
:101E4000932E00E010E0C02E802F0E94D9065C0186
:101E5000F401619071904F01682679266114710434
:101E6000B1F40F5F1F4F0430110569F78FEF8983BD
:101E70008A831B820E946A1B8160782F9D838C83DA
:101E800049815A816B818D810E94BA0F3AC080913D
:101E90003B0281FD0E94E206D12CEE24E394F12C5A
:101EA000C3018E219F21892B29F10E94B40E882322
:101EB000A9F0DE82CF82AE20BF2081E0AB2809F4FA
:101EC00080E088870E946A1B8160782F9A878987C3
:101ED0004E815F8168858A850E94BA0F000F111FAD
:101EE000F801ED54FE4F80819181E826F926F182B8
:101EF000E08207C0D394EE0CFF1CFCE0DF12D0CFD1
:101F0000B0CF0E943A0E0E94510A0E94980D909103
:101F1000B2018917D1F00E94980D8093B2012A96E0
:101F20000FB6F894DEBF0FBECDBFDF91CF911F91EA
:101F30000F91FF90EF90DF90CF90BF90AF909F9068
:101F40008F907F906F900C94DA0E2A960FB6F894CB
:101F5000DEBF0FBECDBFDF91CF911F910F91FF90DC
:101F6000EF90DF90CF90BF90AF909F908F907F9039
:101F70006F900895DF92EF92FF920F931F93CF938C
:101F8000DF93CDB7DEB72B970FB6F894DEBF0FBE49
:101F9000CDBFF42E052F162FE72ED82E61110E94EB
:101FA0004E19FE01319686E0DF011D928A95E9F710
:101FB0007E2D4F2D502F612F8D2D9E810E946316F7
:101FC0002B960FB6F894DEBF0FBECDBFDF91CF9139
:101FD0001F910F91FF90EF90DF900895FC01808199
:101FE00091810E94BA180895CF93882309F4A4C060
:101FF000C82F8238C1F40E94980D81FD9DC069E30D
:1020000080910801909109010E94D71A0E947319CA
:102010002FEF81EE94E0215080409040E1F700C026
:10202000000069E319C0833801F50E94980D80FD16
:1020300083C063E580910801909109010E94D71A3D
:102040000E9473192FEF81EE94E021508040904060
:10205000E1F700C0000063E580910801909109015B
:102060000E94D91ACF910C9473198438C1F40E943C
:10207000980D82FD61C067E480910801909109018B
:102080000E94D71A0E9473192FEF81EE94E021501D
:1020900080409040E1F700C0000067E4DDCF8CEFA6
:1020A0008C0F813AD0F46C2F809108019091090136
:1020B0000E94A11A882349F06C2F80910801909109
:1020C00009010E94D91A0E9473196C2F809108018E
:1020D000909109010E94D71AC5CF80E28C0F8830F9
:1020E00048F4C77081E001C0880FCA95EAF70E94E2
:1020F0003119B8CFEBE5EC0FE33040F4F0E0EC57EA
:10210000FE4F808190E0CF910C94FB0DE8E5EC0F41
:10211000E73150F4F0E0EE0FFF1FEA5AFE4F8081E6
:102120009181CF910C94110ECD3E30F08C2F0E94F6
:10213000DF08CF910C94B109CF910895882309F459
:1021400064C0823879F40E94980D81FF5EC069E313
:1021500080910801909109010E94D71A0E94731979
:1021600069E310C08338B1F40E94980D80FF4DC020
:1021700063E580910801909109010E94D71A0E949D
:10218000731963E580910801909109010E94D91AA1
:102190000C947319843879F40E94980D82FF35C02D
:1021A00067E480910801909109010E94D71A0E946A
:1021B000731967E4E7CF9CEF980F913A10F4682FFA
:1021C000E1CF90E2980F983050F4877091E001C011
:1021D000990F8A95EAF7892F0E943719D9CF9BE585
:1021E000980F933020F480E090E00C94FB0D98E57C
:1021F000980F973120F480E090E00C94110E8D3E02
:1022000020F00E943A090C94B10908951F93CF93CE
:10221000DF93182FEB010E94F40F209741F08FE914
:102220009FE00197F1F700C000002197F6CF812FC2
:10223000DF91CF911F910C949E10893319F060E0CB
:1022400070E002C060E570E00C940611882321F074
:102250000E9431190C9473190895882321F00E946B
:1022600037190C9473190895CF92DF92EF92FF9271
:102270000F931F93CF93DF937C01D62FC72FFC01C1
:102280001281058102950F700E94F218882399F03F
:10229000112389F08C2F807F803421F080E28D0F14
:1022A000883048F082E00E94C3190E94F21891E041
:1022B000D82ED92601C0D12CCC2EC2948FE0C822B2
:1022C0008C2D90E08C30910508F0B6C1FC01EA5AE3
:1022D000FF4F0C947A238C2F807FCF70882311F0CE
:1022E000C295C07F112399F0CC2309F491C180E2FB
:1022F0008D0F883010F0D11104C08C2F0E9431193D
:1023000003C08C2F0E9441190E94731981C18D2F27
:102310000E949E10CC2309F48FC180E28D0F88307B
:1023200010F0D11104C08C2F0E94371903C08C2FDC
:102330000E9447190E9473197FC18C2F807FCF7034
:10234000803211F0C295C07FDD2319F0D130C9F081
:1023500022C0112371F0002341F0013031F40E94BA
:1023600054198C2B0E945C1967C10E9454198C2B44
:102370001DC0002319F0013009F45EC10E946919E3
:1023800025C0112321F0063008F056C10EC00530DB
:1023900008F052C11BC0112361F0002331F0F70196
:1023A000858180FF35C18F7085838C2F0E94261117
:1023B00043C1002359F0D93309F03BC1FFEF07EEC9
:1023C00013E0F15000401040E1F731C18C2F0E9422
:1023D0002D1132C18C2F86958695837019F081302E
:1023E00061F02AC1112321F08D2F9C2F937002C020
:1023F00080E090E00E94FB0D27C1112321F08D2F7A
:102400009C2F937002C080E090E00E94110E1CC1CE
:102410008D2F112319F00E94DF0802C00E943A0993
:102420000E94B10911C18C2F837009F047C01111AE
:1024300007C12D2F229526952770220F220F6D2F71
:102440006F70862F90E0A0E0B0E0022E04C0880FED
:10245000991FAA1FBB1F0A94D2F7D4FF10C04FE0E8
:1024600050E060E070E004C0440F551F661F771F06
:102470002A95D2F7409550956095709503C040E03D
:1024800050E0BA01C695C695C3708A019B01082B1E
:10249000192B2A2B3B2BC901B801C23049F058F443
:1024A000C13019F00E943717CBC00E942517C8C051
:1024B0000E944917C5C00E942317C2C0112319F0FA
:1024C0008C2F817001C08695882309F4B9C02D2F07
:1024D000229526952770220F220F6D2F6F70862F61
:1024E00090E0A0E0B0E0022E04C0880F991FAA1F60
:1024F000BB1F0A94D2F7D4FF10C04FE050E060E059
:1025000070E004C0440F551F661F771F2A95D2F74D
:10251000409550956095709503C040E050E0BA0139
:10252000C695C695C3708A019B01082B192B2A2BCF
:102530003B2BC901B801C23049F058F4C13019F041
:102540000E94FC177DC00E94EA177AC00E940E18F4
:1025500077C00E945D1774C0CF70112339F08C2FA3
:102560000E9483178D2F0E9426116AC08D2F0E9412
:102570002D118C2F0E94A41763C0D23F01F128F4C3
:10258000D03F41F0D13FA1F03FC0D33FF9F0D43F5D
:1025900039F13AC0112341F0053008F04DC08C2FBD
:1025A0008F710E94C91748C0063008F045C0F7CFA8
:1025B000112339F08C2F8F710E9483173DC0112396
:1025C000C9F38C2F8F710E94A41736C0112329F0F4
:1025D0008C2F8F710E946E172FC00E9469172CC01C
:1025E000112349F0CF718C2F0E94831763E08C2F49
:1025F0000E94A81921C081E00E94C3190230E0F0B6
:1026000082E00E94C31918C0112331F0002391F217
:102610008D2F0E94F40F10C0002399F2D93349F492
:102620001FEF27EE33E0115020403040E1F700C0AB
:1026300000008D2F0E949E1088EF8C0D843020F4B6
:102640000E94980D0E94A804DD20C9F00E94EE1897
:1026500080FD15C0F70112820E94E8180E948317BE
:10266000C7010E9460130E94E818DF91CF911F916B
:102670000F91FF90EF90DF90CF900C94A417DF9113
:10268000CF911F910F91FF90EF90DF90CF90089521
:102690000F931F93CF93DF93EC01688179818A8137
:1026A0000E94C5188C010E9420180E941117B801C1
:1026B000CE010E943411DF91CF911F910F910895A7
:1026C000CF93DF93EC01988189812B813C81232B6F
:1026D00031F08F3F31F481E09F3F19F403C081E076
:1026E00001C080E080FD19C0CE010E940B04811161
:1026F0000CC00E94F218882381F08A81882369F037
:1027000082E0DF91CF910C94C319CE010E9448134F
:10271000CE01DF91CF910C94EA03DF91CF91089520
:1027200080E090E00E94FB0D80E090E00E94110E9E
:102730000E944E190E9451190E9473190E94640B45
:102740000C94B10980910801909109010E94DB1A53
:102750000C9490130E943E190C94A213E92FE29559
:10276000EF704E2F50E0FA013297EE30F105B0F4E1
:10277000EE59FF4F0C947A23803F91F018F4883E75
:1027800068F40EC0843F51F40BC0883E48F0813F8E
:1027900029F406C093FB882780F9089580E0089506
:1027A00081E008950E94BA180E94AE130895CF9355
:1027B000DF9300D000D01F92CDB7DEB70F900F90FF
:1027C0000F900F900F90DF91CF910895CF93DF93EB
:1027D00000D000D000D0CDB7DEB726960FB6F89463
:1027E000DEBF0FBECDBFDF91CF9108951F93CF9372
:1027F000DF93C091D00116E08091D101C81799F004
:10280000D0E01C9FF0011D9FF00D1124EE52FE4FF1
:102810004081518162817381848195810E94E61398
:102820002196C770E9CFDF91CF911F910895409114
:10283000020250910302609104027091050280919E
:102840000602909107020C94E6130F931F93CF9307
:10285000DF938091070282958F7009F05DC08091AF
:102860000402882309F458C08091D0011091D1014D
:102870006091020270910302C0910502D09106029C
:1028800091E06F3F09F090E0292F06E0811709F4ED
:1028900043C0209721F07F3F21F030E003C031E0BA
:1028A00001C0322F90E030FD34C0089FF001099F35
:1028B000F00D1124DF01AE52BE4F11963C911197DD
:1028C000371327C03C91361324C012963C911297BF
:1028D00031111FC013964D915C9114974C1B5D0BE9
:1028E000483C5105B0F4809107028F70806180935D
:1028F0000702E952FE4F80818F708061808382E001
:1029000092E00E946013DF91CF911F910F910C9480
:10291000F61301968770BACFDF91CF911F910F9177
:1029200008959F92AF92BF92CF92DF92EF92FF9263
:102930000F931F93CF93DF93CDB7DEB761970FB699
:10294000F894DEBF0FBECDBF8C0185E0F801DE013B
:102950001D9601900D928A95E1F7F8014081518111
:10296000E280909102026091030220910502309171
:1029700006022115310531F06F3F31F481E09F3FB0
:1029800019F403C081E001C080E0F82FF1709F2EA0
:1029900080FD46C1F801A380B48082E0C82E82E0A9
:1029A000D82EF0900402F501E21BF30BFF2009F48E
:1029B000DFC080910702E83CF10508F09BC0282F9A
:1029C000207F09F052C0561313C0491311C0FE2CCA
:1029D000E1100EC08F708061809307020E9417146F
:1029E000C6010E94601380910702F801858358C1D7
:1029F000AB2831F05F3F31F481E04F3F19F403C061
:102A000081E001C080E080FD03C081E08E2502C02E
:102A100080E090E0F82FF170FF2E80FF1CC08091C5
:102A2000D0012091D10136E0821709F417C190E05E
:102A3000389FF001399FF00D1124EE52FE4F618155
:102A4000561306C06081461303C06281E61203C0BC
:102A500001968770E9CFFE2CEE2009F421C1809108
:102A600007028160809307025AC0561306C04913BB
:102A700004C0E11002C0F8019FC04D875E878D85BC
:102A80009E850E94D213882379F1EE2069F120916E
:102A90000702822F82958F7090E0029774F08091E8
:102AA00002029091030298878F831986BB86AA86BB
:102AB0002C87CE0107960E94601386E0F801A2E001
:102AC000B2E001900D928A95E1F70E9425140E94D0
:102AD00017140DC0561729F14D875E878D859E8589
:102AE0000E94D21381112CC0C8010E946013FF24E0
:102AF000F394D6C0282F207F69F77A2DB98AA88A47
:102B00006E2D89890E94D71382E092E00E946013A3
:102B100086E0F60111928A95E9F70E941714F12CCC
:102B2000BFC04913D9CFE110D7CFF8018583C801C1
:102B30000E94601386E0F60111928A95E9F7B0C011
:102B4000EE2091F220910702822F82958F7090E003
:102B500002970CF4B2CF80910202909103029A8303
:102B600089831B82BD82AC822E83CE010196A3CFC6
:102B7000E83CF10508F047C0FE2CEE2009F4B4CF84
:102B8000561330C049132EC02091070220FD21C0EA
:102B9000822F82958F70482F50E041155105C9F062
:102BA000F80125834F30510541F08F5F982F9295A2
:102BB000907F822F8F70892B8583C8010E946013BC
:102BC00086E0F801A2E0B2E001900D928A95E1F76B
:102BD00042C086E0F801A2E0B2E001900D928A9531
:102BE000E1F75EC04D875E878D859E850E94D2137A
:102BF000811163CF80910702816080930702C80131
:102C00000E9460134DC07A2DB98AA88A6E2D8989D9
:102C10000E94D71386E0F60111928A95E9F71BC04E
:102C2000EE2009F461CF4D875E878D859E850E94D9
:102C3000D213F82E882309F457CF86E0F801A2E0DA
:102C4000B2E001900D928A95E1F782E092E00E9455
:102C5000EE0F0E9425140E94171422C04D875E8734
:102C60008D859E850E94BA18292F22952F702230BB
:102C700028F49F7039F0811105C00BC0243028F46E
:102C80009F7049F4805E883020F0C8010E94601374
:102C90009F2CF92C05C0F8019581907F99F7F9CF09
:102CA0008F2D61960FB6F894DEBF0FBECDBFDF91BA
:102CB000CF911F910F91FF90EF90DF90CF90BF9039
:102CC000AF909F9008951F93CF93DF93CDB7DEB75A
:102CD0002C970FB6F894DEBF0FBECDBF4F83588739
:102CE00069877A878B879C87CE0107960E9491140B
:102CF0008823D1F09F8188852A853B85232B31F05D
:102D00008F3F31F481E09F3F19F403C081E001C09F
:102D100080E080FD47C04F81588569857A858B8525
:102D20009C850E94E6133EC086E0FE013796DE01D8
:102D3000119601900D928A95E1F7FF81E8856A85E9
:102D40007B856115710531F0EF3F31F481E0FF3F84
:102D500019F403C081E001C080E080FD23C0209110
:102D6000D10130E0C9010196877099274091D001C7
:102D700050E084179507F1F1F983EA837D836C8332
:102D800096E0929FD001939FB00D1124AE52BE4F9A
:102D9000FE01319601900D929A95E1F78093D10151
:102DA0000E94F61316E08091D0019091D10189170D
:102DB00071F1189FC00111248E529E4F0E949114F0
:102DC000882329F1E091D0011E9FF0011124EE52D9
:102DD000FE4F4081518162817381848195810E947F
:102DE000E6138091D00190E0019687709927809337
:102DF000D001D9CF0E94AA131092D1011092D00114
:102E0000E2E0F2E086E0DF011D928A95E9F72C9678
:102E10000FB6F894DEBF0FBECDBFDF91CF911F91EB
:102E20000895089508950C9412170C9413170E9496
:102E3000151760932A0270932B0280932C029093B3
:102E40002D020C9490130C9417170F931F9300915D
:102E50002A0210912B0220912C0230912D02602B1E
:102E6000712B822B932B1F910F910C9417170F939B
:102E70001F9300912A0210912B0220912C02309175
:102E80002D0260237123822393231F910F910C94B1
:102E900017170F931F9300912A0210912B02209174
:102EA0002C0230912D0260277127822793271F91D2
:102EB0000F910C9417170C9412170E945B176093D4
:102EC00026027093270280932802909329020C9483
:102ED000901360E070E0CB010C945D170F931F938B
:102EE00041E050E060E070E08A019B0104C0000F07
:102EF000111F221F331F8A95D2F7C901B8011F91F4
:102F00000F910C945D170F931F9341E050E060E028
:102F100070E004C0440F551F661F771F8A95D2F7D3
:102F20008091260290912702A0912802B091290257
:102F30008A019B01082B192B2A2B3B2BC901B801B5
:102F40001F910F910C945D170F931F9341E050E078
:102F500060E070E004C0440F551F661F771F8A951C
:102F6000D2F740955095609570958091260290918A
:102F70002702A0912802B09129028A019B0108230F
:102F800019232A233B23C901B8011F910F910C94E7
:102F90005D170F931F9341E050E060E070E004C0C4
:102FA000440F551F661F771F8A95D2F7809126021E
:102FB00090912702A0912802B09129028A019B01D9
:102FC000082719272A273B27C901B8011F910F910C
:102FD0000C945D170F931F93009126021091270206
:102FE0002091280230912902602B712B822B932B88
:102FF0001F910F910C945D170F931F930091260260
:103000001091270220912802309129026023712318
:10301000822393231F910F910C945D170F931F939D
:103020000091260210912702209128023091290256
:1030300060277127822793271F910F910C945D17AA
:1030400008952CE0929F800D1124E82FE695E695D7
:10305000E695877051E001C0550F8A95EAF785E043
:10306000E89FF0011124E85FFD4F20E030E070E0C0
:103070004081CB01022E02C0969587950A94E2F713
:103080008170819584278523842781932F5F3F4F0B
:103090002530310569F708952CE0929F800D1124A9
:1030A000682F669566956695982F977085E0689F5E
:1030B000B001112440E050E080E0FB01E40FF51F77
:1030C000E85FFD4F208130E0092E02C0369527953C
:1030D0000A94E2F721703327042E01C0220F0A94CC
:1030E000EAF7822B4F5F5F4F4530510531F7089566
:1030F000BF92CF92DF92EF92FF920F931F93CF93E5
:10310000DF938C01C0902602D0902702E090280225
:10311000F090290280912A0290912B02A0912C021A
:10312000B0912D02C82AD92AEA2AFB2ACFE1D0E0A1
:10313000D701C6010C2E04C0B695A7959795879523
:103140000A94D2F780FD04C0219790F7B12C07C0F4
:10315000BC2EB8018C2F0E94C4040197A9F38B2DBB
:10316000DF91CF911F910F91FF90EF90DF90CF9063
:10317000BF900895CF93DF93EC010E947818BE01B1
:103180000E94C404DF91CF9108951F93CF93DF93E2
:10319000EB019091CF01992321F0CB010E94BA1845
:1031A00013C0882349F0CB010E947818182F682F8C
:1031B000CE010E94211804C0CB010E944C18182F88
:1031C000BE01812F0E94C404DF91CF911F91089509
:1031D00080912E02859585958595089580912E0282
:1031E0008770089590912E02977081E009F480E035
:1031F0000895CF9390914B0292FB222720F9281734
:10320000E1F0C82F892FC0FB82F980934B02809197
:103210004A0290914B020E940A1A80913B0280FF61
:103220000CC01F92CF938BE493E09F938F930E94E7
:103230006E030F900F900F900F90CF910895809193
:103240004B0282FB882780F991E089270C94F918BA
:1032500081E00C94F91880E00C94F91880913A02FE
:10326000089590913A02892B80933A0208958095AF
:1032700090913A02892380933A02089510923A027B
:10328000089590913902892B809339020895809591
:10329000909139028923809339020895109239025E
:1032A000089510923802089580912F02089508958C
:1032B0000C9457190C94581990914B0292FD08C028
:1032C00090912F02981721F080932F020C945A1995
:1032D000089580912F02882329F010922F0280E018
:1032E0000C945A190895E0910801F0910901809118
:1032F0003A028083E0910801F09109019081809168
:103300003902892B8083E0910801F09109019081B5
:1033100080913802892B808380912F02882381F04D
:10332000E0910801F09109019081892B80838091BF
:103330000801909109010E94951A81110E94691952
:1033400080910801909109010C94A40D0C945719D7
:1033500090914B0292FD10C098E0899F900111243A
:10336000262B20932E020E94831780912E02859592
:10337000859585950C94A6190C94831710922E02AE
:1033800080E00C94A61920912E02809582238093D0
:103390002E02982F977041F430E0482F082E000C31
:1033A000550B2417350721F490914B0292FF07C06B
:1033B0008595859585950E94A4170C94BE1908954E
:1033C0006FEF7FEF80E090E00C94C02380E090E00E
:1033D0000E949C2321E08A3E9E4F09F020E0822F2C
:1033E000089582E090E00C94942383E090E00C94A4
:1033F0009423CF9384E090E00E949423C82F82E22C
:1034000090E00E9494232C2F30E0A901582BCA0190
:10341000CF910895CF93C92F682F84E090E00E9448
:10342000A2236C2F82E290E0CF910C94A223AB01F7
:10343000BC018FE090E00C94B423AB01BC0183E1AC
:1034400090E00C94B42360E070E0CB010C941D1A62
:1034500060E070E0CB010E94171A0C94231A6AEE08
:103460007EEF80E090E00E94C02360E082E090E088
:103470000E94A22360E083E090E00E94A2231092C9
:103480002A0210922B0210922C0210922D0260E060
:1034900084E090E00E94A22360E082E290E00E943B
:1034A000A22360E085E090E00E94A22360E086E035
:1034B00090E00E94A2236FEF87E090E00E94A22399
:1034C00040E050E0BA0188E090E00E94B42360E060
:1034D0008DE090E00E94A22340E050E0BA0188E134
:1034E00090E00E94B42360E087E190E00E94A22374
:1034F00040E050E0BA018CE190E00E94B42360E02B
:1035000070E080E290E00E94C02340E050E0BA0109
:1035100088E190E00E94B4230C94281A0C942F1A8E
:10352000682F8EE090E00C94A223FC01329697E085
:1035300080E0915029F021912223D9F38F5FF9CFB8
:103540000895662349F0FC0132960896219162178E
:1035500029F0E817F907D1F780E0089581E0089590
:103560009C01FC0132969FEF80E04191461789F063
:103570009F3F19F4411101C0982F8F5F8630A9F742
:103580009F3F39F0F901E90FF11D97FDFA9562832C
:10359000089508959C012A5F3F4FFC014281461324
:1035A00001C01282019682179307B9F708950C940F
:1035B000B01A0C94CA1A029626E0FC0111922A95C0
:1035C000E9F7089508950C94E21A0C94E21ACF9347
:1035D0000E94E51A0E9494070E94E31AC0E08C2F13
:1035E0000E94D906892B29F4CF5FC430C1F780E04F
:1035F00001C081E0CF9108950C94E21A0C94FC1A5A
:1036000080916402843049F10E94FE1A80E00E9499
:10361000A80410923C0220E488E190E00FB6F894F0
:10362000A895809360000FBE2093600083B7817FD0
:10363000846083BF83B7816083BF7894889583B7A4
:103640008E7F83BF0FB6F894A89580916000886143
:1036500080936000109260000FBE08950C94E21AEF
:103660000E94AA130E94980D0E94A8040C942E1B7D
:103670001F920F920FB60F9211248F939F93AF93C7
:10368000BF9380913C02811113C080915C029091A4
:103690005D02A0915E02B0915F024196A11DB11D35
:1036A00080935C0290935D02A0935E02B0935F02F0
:1036B000BF91AF919F918F910F900FBE0F901F9070
:1036C000189582E084BD93E095BD9AEF97BD8093F5
:1036D0006E0008952FB7F89480915C0290915D027E
:1036E000A0915E02B0915F022FBF08952FB7F894AA
:1036F00060915C0270915D0280915E0290915F0228
:103700002FBF08959C014FB7F89480915C0290916F
:103710005D02A0915E02B0915F024FBF821B930BCE
:10372000089578941F920F920FB60F9211248F93E1
:103730009F93AF93BF9380915C0290915D02A091A3
:103740005E02B0915F020196A11DB11D80935C02E3
:1037500090935D02A0935E02B0935F02BF91AF9120
:103760009F918F910F900FBE0F901F90189581E041
:103770008093E00080E28093D8001092C9008FE12E
:103780009EE40197F1F700C0000087E090EBDC01B8
:1037900080936D0290936E02A0936F02B0937002BB
:1037A0009CE088E10FB6F894A895809360000FBE66
:1037B00090936000FFCF90939701809396010895B6
:1037C000809148020895CF93DF9300D01F92CDB728
:1037D000DEB790916402943019F589837B836A8304
:1037E00082E08093E9008FEF9091E800815095FD91
:1037F00006C095ED9A95F1F700008111F5CF809103
:10380000E80085FF0DC040E050E063E070E0CE01CD
:1038100001960E94BD1E8091E8008E778093E8009B
:103820000F900F900F90DF91CF910895BC0184E02D
:103830000C94E31BBC0183E00C94E31B22E0209377
:10384000E9002FEF3091E800215035FD06C035ED3D
:103850003A95F1F700002111F5CF2091E80025FFFE
:103860000BC040E050E066E070E00E94BD1E809119
:10387000E8008E778093E8000895CF93DF9321E0EE
:103880002093E9002FEF3091E800215035FD06C06C
:1038900035ED3A95F1F700002111F5CF2091E800C0
:1038A00025FF14C0EC0140E050E068E070E00E94A9
:1038B000BD1E8091E8008E778093E80088E0FE01CD
:1038C000A0E4B2E001900D928A95E1F7DF91CF91EB
:1038D000089585E893E00E94D502809163028111EA
:1038E00009C00E944E200E94AB208091E2008460BB
:1038F0008093E200089581E893E00E94D50210923F
:10390000630208958DE793E00C94D50289E793E074
:103910000C94D50285E793E00C94D50220913E02E9
:103920002F5F822F62E30E945A23992319F020937C
:103930003E02089510923E0280913F02882371F169
:1039400080916402843041F58091E9008F7020916C
:10395000EC00922F917020FD90E8892B93E09093DA
:10396000E9009091EB0090FF14C09091EE0097FF5A
:1039700010C09091E80095FF03C01092F100F9CFBC
:103980009091E80090FF05C09091E8009E77909399
:10399000E8008F708093E90010923F02089542E0A2
:1039A00061EC81E00E94C71F42E261EC82E00E946C
:1039B000C71F42E261EC83E00C94C71F809166024E
:1039C000833009F460C030F4813071F0823009F442
:1039D00099C008958A3009F485C08B3009F46BC012
:1039E000893009F0A7C020C080916502813A09F0B2
:1039F000A1C08091E800877F8093E80080916902F0
:103A000090916A02892B21F468E080E492E003C07F
:103A100060E080E090E070E00E94081F8091E80084
:103A20008B778093E800089580916502813209F0D8
:103A300081C08091690290916A02029708F07AC071
:103A40008091E800877F8093E8008091E80082FD04
:103A500005C0809164028111F8CF6CC02091F30001
:103A60008091F20090E0922B029729F48091F1006E
:103A70008B7F813021F48091F10080934802809106
:103A8000E8008B7753C080916502813A09F052C0FB
:103A90008091690290916A02892B09F04BC0809154
:103AA000E800877F8093E8008091E80080FFFCCFEA
:103AB0008091140136C0809165028132D9F58091E0
:103AC000690290916A02892BA9F58091E800877FAD
:103AD0008093E8000E94FC1F80916702809314018C
:103AE0000C94AA1380916502813221F58091E8003F
:103AF000877F8093E8000E94FC1F8091680280937A
:103B00004902089580916502813AA1F48091E8000C
:103B1000877F8093E8008091E80080FFFCCF809150
:103B200049028093F1008091E8008E778093E8004D
:103B30000C94FC1F08959FB7F89410923F029FBF0A
:103B400090916402943009F057C09091E9009F7001
:103B50003091EC00232F217030FD20E8922B23E0E0
:103B60002093E9002091EB0020FF43C02091EE005C
:103B700027FF3FC020913D02222321F02091E80041
:103B800025FF37C010923D0226E03091E80035FD58
:103B900015C030916402343061F53091EB0035FD91
:103BA00028C0215021F481E080933D0222C0EFE93A
:103BB000FFE03197F1F700C00000E7CF8093F100FC
:103BC0008091E80085FD0AC08091E80080FFFCCF6D
:103BD0008091E8008E778093E80006C08FB7F89454
:103BE00021E020933F028FBF9F709093E90080E017
:103BF00008959F709093E9008FEF089584B7877FB1
:103C000084BF0FB6F894A895809160008861809376
:103C10006000109260000FBE90E080E80FB6F8944C
:103C200080936100909361000FBE0E94C10E0E94BC
:103C30004E200E94AB208091E20084608093E200DD
:103C400078940E943F230E94CF0E8AE091E00E9468
:103C5000930D84E693E00E94D50280916402853042
:103C6000C9F480E693E00E94D50280916402853019
:103C700079F40E94001B809162028823B1F30E94B4
:103C8000E71A882391F30E94A71E0E94AA13EDCF82
:103C90000E94301B0E94020F0E94CB0EDECF0C94BC
:103CA000511E292F332723303105C9F060F421300C
:103CB000310581F02230310509F041C08BE590E0FB
:103CC00025EB33E040C021323105E1F022323105ED
:103CD00031F135C082E190E020E134E034C0992731
:103CE0008130910549F028F0029749F5E9E8F3E0C1
:103CF00005C0E1EBF3E002C0EFE9F3E0849190E06E
:103D00009F0121C063307105D0F4660F771FFB015E
:103D1000E057FE4F2081318189E090E014C063308C
:103D2000710568F4FB01EE0FFF1FE657FE4F20817F
:103D30003181FB01E957FE4F808190E004C080E0B3
:103D400090E020E030E0FA0131832083089580E1A3
:103D500089BD82E189BD09B400FEFDCF8091D80004
:103D60008F7D8093D8008091E00082608093E00096
:103D70008091E00081FDFCCF0895CF92DF92EF9219
:103D8000FF920F931F93CF93DF93EC018B017A0186
:103D90000E941B20811133C0E114F10439F0F701B6
:103DA00080819181081B190BC80FD91FC12CD12C00
:103DB0000115110519F18091E80085FD16C080916B
:103DC000E8008E778093E800E114F10449F0F701F0
:103DD00080819181C80ED91ED182C08285E00FC03A
:103DE0000E941B20882321F30AC089918093F1004F
:103DF00001501109FFEFCF1ADF0ADACF80E0DF911F
:103E0000CF911F910F91FF90EF90DF90CF90089589
:103E100020916B0230916C022617370748F061152C
:103E2000710539F42091E8002E772093E80001C055
:103E3000B901FC0120E06115710579F180916402FE
:103E40008823F1F18530F1F18091E80083FD3CC0D9
:103E50008091E80082FD2EC08091E80080FFEBCFCA
:103E60002091F3008091F20090E0922B6115710592
:103E700051F08830910538F421912093F100615080
:103E800071090196F3CF21E0089709F020E08091B5
:103E9000E8008E778093E800CECF2111CFCF0AC003
:103EA00080916402882361F0853061F08091E800A0
:103EB00083FD0AC08091E80082FFF2CF80E0089580
:103EC00082E0089583E0089581E0089520916B02D7
:103ED00030916C022617370748F06115710539F4E7
:103EE0002091E8002E772093E80001C0B901FC0181
:103EF00020E06115710591F180916402882309F435
:103F000040C0853009F43FC08091E80083FD3DC08A
:103F10008091E80082FD2FC08091E80080FFE9CF0A
:103F20002091F3008091F20090E0922B61157105D1
:103F300059F08830910540F424912093F100319696
:103F4000615071090196F2CF21E0089709F020E055
:103F50008091E8008E778093E800CBCF2111CCCF01
:103F60000AC080916402882361F0853061F08091FD
:103F7000E80083FD0AC08091E80082FFF2CF80E074
:103F8000089582E0089583E0089581E00895982FD0
:103F9000973068F59093E900981739F07091EC002C
:103FA0002091ED005091F00003C0242F762F50E0B7
:103FB00021FD02C09F5FECCF3091EB003E7F30933C
:103FC000EB003091ED003D7F3093ED003091EB0040
:103FD00031603093EB007093EC002093ED00509330
:103FE000F0002091EE0027FDE5CF80E008958F706E
:103FF0008093E90081E008958091650287FF11C0F8
:104000008091E80082FD05C0809164028111F8CFA3
:1040100011C08091E8008B770BC0809164028823E7
:1040200049F08091E80080FFF8CF8091E8008E771A
:104030008093E80008952091E4003091E50095E632
:104040004091EC00842F817040FF23C08091E800F4
:1040500080FD1DC080916402882399F0853099F01D
:104060008091EB0085FD11C04091E4005091E50086
:104070002417350729F3915011F09A01E1CF84E01C
:10408000089582E0089583E0089581E0089580E036
:1040900008954091E80042FFDDCF08950E94BC20C2
:1040A0000E94C420E0EEF0E0808181608083E8ED32
:1040B000F0E080818F77808319BCA7EDB0E08C9110
:1040C0008E7F8C9380818F7E80831092630208950F
:1040D0000F931F93CF93DF930E94BC200E94C420B4
:1040E000C8EDD0E088818F77888388818068888355
:1040F00088818F7D888319BC1092640210926002BF
:10410000109262021092610200EE10E0F8018081CC
:104110008B7F808388818160888342E060E080E0DB
:104120000E94C71FE1EEF0E080818E7F8083E2EE87
:10413000F0E0808181608083808188608083F801E5
:1041400080818E7F8083888180618883DF91CF9199
:104150001F910F910895E8EDF0E080818F7E8083BC
:10416000E7EDF0E080818160808384E082BF81E0C0
:10417000809363020C946820E8EDF0E080818E7FEC
:1041800080831092E20008951092DA001092E1000C
:1041900008951F920F920FB60F9211242F933F9301
:1041A0004F935F936F937F938F939F93AF93BF933F
:1041B000EF93FF938091E10082FF0BC08091E200BA
:1041C00082FF07C08091E1008B7F8093E1000E9415
:1041D0008E1C8091DA0080FF1FC08091D80080FF84
:1041E0001BC08091DA008E7F8093DA008091D90025
:1041F00080FF0DC080E189BD82E189BD09B400FE68
:10420000FDCF81E0809364020E94691C05C019BC47
:10421000109264020E947B1C8091E10080FF19C013
:104220008091E20080FF15C08091E2008E7F809334
:10423000E2008091E20080618093E2008091D800EA
:1042400080628093D80019BC85E0809364020E944C
:10425000861C8091E10084FF30C08091E20084FFE1
:104260002CC080E189BD82E189BD09B400FEFDCF8B
:104270008091D8008F7D8093D8008091E1008F7E5F
:104280008093E1008091E2008F7E8093E200809134
:10429000E20081608093E20080916002882311F047
:1042A00084E007C08091E30087FD02C081E001C087
:1042B00083E0809364020E948A1C8091E10083FF66
:1042C00029C08091E20083FF25C08091E100877FB3
:1042D0008093E10082E080936402109260028091FA
:1042E000E1008E7F8093E1008091E2008E7F8093D9
:1042F000E2008091E20080618093E20042E060E0B1
:1043000080E00E94C71F8091F00088608093F000D9
:104310000E94821CFF91EF91BF91AF919F918F916D
:104320007F916F915F914F913F912F910F900FBEB1
:104330000F901F9018951F920F920FB60F92112495
:104340002F933F934F935F936F937F938F939F939D
:10435000AF93BF93CF93DF93EF93FF93C091E900A7
:10436000CF708091EC00D82FD17080FDD0E81092F2
:10437000E9008091F000877F8093F00078940E949C
:10438000DF211092E9008091F00088608093F000B6
:10439000CD2BCF70C093E900FF91EF91DF91CF91CA
:1043A000BF91AF919F918F917F916F915F914F914D
:1043B0003F912F910F900FBE0F901F9018951F9354
:1043C000CF93DF93CDB7DEB7AA970FB6F894DEBFD1
:1043D0000FBECDBFE5E6F2E08091F100819322E0CF
:1043E000ED36F207C9F70E94DE1C8091E80083FFDA
:1043F0002EC18091650290916602492F50E04A30AB
:10440000510508F024C1FA01E059FF4F0C947A23BA
:10441000803821F0823809F01AC108C08091610209
:1044200090916202992389F082600FC080916902A5
:104430008F70873008F00BC18093E9008091EB000A
:1044400085FB882780F91092E9009091E800977F1A
:104450009093E8008093F1001092F100D1C0282FD2
:104460002D7F09F0F4C0882319F0823061F0EFC08D
:1044700080916702813009F0EAC0933009F080E052
:10448000809362022EC08091670281112AC08091C0
:1044900069028F702FEF280F263008F0D8C0809364
:1044A000E9002091EB0020FF1CC0933021F48091A3
:1044B000EB00806214C09091EB0090619093EB0050
:1044C00021E030E0A90102C0440F551F8A95E2F7B0
:1044D0004093EA001092EA008091EB00886080939C
:1044E000EB001092E9008091E800877F8093E8005C
:1044F0000E94FC1FACC08111AAC0109167021F77F7
:104500008091E3008078812B8093E3008091E80024
:10451000877F8093E8000E94FC1F8091E80080FF65
:10452000FCCF8091E30080688093E300111102C00A
:1045300082E001C083E08093640289C080588230A9
:1045400008F085C080916702909168028C3D53E02D
:10455000950779F583E08A838AE289834FB7F894D7
:10456000DE01139620E03EE051E2E32FF0E05093AD
:104570005700E49120FF03C0E295EF703F5FEF70BA
:104580008E2F90E0EA3010F0C79601C0C0968D9350
:104590009D932F5F243149F74FBF8091E800877FBB
:1045A0008093E8006AE270E0CE0101960E94081F45
:1045B00016C06091690270916A02AE014F5F5F4F51
:1045C0000E944F1EBC01892B09F441C09091E80064
:1045D000977F9093E80089819A810E94661F80915D
:1045E000E8008B778093E80032C0803881F58091B5
:1045F000E800877F8093E800809160028093F1005B
:104600008091E8008E7772CF811121C0809167027E
:104610009091680299270297D4F48091E800877FEF
:104620008093E80080916702809360020E94FC1FE3
:1046300080916002811106C08091E30087FD02C075
:1046400081E001C084E0809364020E94CF1C8091CD
:10465000E80083FF0AC08091E800877F8093E8002C
:104660008091EB0080628093EB00AA960FB6F894DD
:10467000DEBF0FBECDBFDF91CF911F910895CF93C5
:10468000809164028823A1F0C091E900CF709091DD
:10469000EC00892F817090FD80E8C82B1092E90012
:1046A0008091E80083FD0E94DF21CF70C093E90074
:1046B000CF910895991B79E004C0991F961708F0CF
:1046C000961B881F7A95C9F78095089597FB072E4A
:1046D00016F4009407D077FD09D00E94802307FCD0
:1046E00005D03EF4909581959F4F08957095619502
:1046F0007F4F0895EE0FFF1F0590F491E02D099470
:10470000AA1BBB1B51E107C0AA1FBB1FA617B707F7
:1047100010F0A61BB70B881F991F5A95A9F7809513
:104720009095BC01CD010895F999FECF92BD81BD50
:10473000F89A992780B50895A8E1B0E042E050E0EA
:104740000C94C823262FF999FECF92BD81BDF89A0B
:10475000019700B4021639F01FBA20BD0FB6F894C5
:10476000FA9AF99A0FBE08950396272F0E94A32361
:104770000E94A223252F0E94A323242F0C94A3235D
:104780000196272F0E94A3230C94A223DC01CB01C6
:10479000FC01F999FECF06C0F2BDE1BDF89A319651
:1047A00000B40D9241505040B8F70895F894FFCFEF
:1047B0002808641E140A321E3002E01B3D1C1E1C19
:1047C0001A1C161C01E200E900EA00B500B600B7A9
:1047D00000CD008301CC008A0192019401210223C3
:1047E0000224022502260227022A02B300B4006F27
:1047F000007000818283F6F5973435369192939557
:104800009496F0F1F4F7E200E900EA00B500B60092
:10481000B700CD008301CC008A01920194012102EE
:10482000230224022502260227022A02B300B40032
:104830006F007000818283407B22BF044404220405
:06484000C703E003F903C9
:00000001FF
