:100000000C94A2010C94E9010C94E9010C94E9010F
:100010000C94E9010C94E9010C94E9010C94E901B8
:100020000C94E9010C94E9010C94561C0C94281DC5
:100030000C9484170C94E9010C94E9010C94E901E7
:100040000C94E9010C94E9010C94E9010C94E90188
:100050000C94E9010C94DD170C94E9010C94E9016E
:100060000C94E9010C94E9010C94E9010C94E90168
:100070000C94E9010C94E9010C94E9010C94E90158
:100080000C94E9010C94E9010C94E9010C94E90148
:100090000C94E9010C94E9010C94E9010C94E90138
:1000A0000C94E9010C94E9010C94E901C90DC90D06
:1000B000FB0DFB0D480E660E7A0F7A0F710E0A0FBC
:1000C0001B0F1B0F1A101A102C102C1023102C10A1
:1000D0002C102C101A101A1028102C102C1028106C
:1000E000951DBC1DB41EBC1DB41E081E2B1EB41EC7
:1000F000821E911E290014001A0008001500170026
:100100001C0018000C00120013002A002B00040031
:100110001600070009000A000B000D000E000F007A
:1001200033002800E1001D001B0006001900050037
:1001300011001000360037003800E500E000000034
:100140000000E200000002512C00000001510000FC
:100150000000E300A90014004B00C35CC15C170061
:100160001C0018005200C45CC55C4C00AA004A0088
:100170004E00070018002D002E00500051004F00C7
:100180003400005CE100C65CC75CC85CC95C2F0041
:100190003000CA5CCB5C37003100E500E0000000B5
:1001A00000000100000001002C0000000100000020
:1001B0000000005C3A003B003C003D003E003F0078
:1001C000400041004200430044004500A8001E00DA
:1001D0001F0020002100220023002400250026000B
:1001E0002700280039001E021F02200221022202DD
:1001F00023022402250226022702E500E000000077
:1002000000000100000001002C00000001000000BF
:100210000000E30010037300700065006C007500BF
:100220006E006B00000010037300650061006C003D
:1002300061006E00640000000403090409023B0031
:10024000020100A0FA0904000001030101000921D4
:10025000110100012240000705810308000A09047A
:1002600001000103000000092111010001227B00AF
:100270000705820320000A1201100100000008EDAA
:10028000FE000001000102000105010902A1018533
:10029000020901A100050919012908150025019588
:1002A00008750181020501093009311581257F9505
:1002B000027508810609381581257F950175088129
:1002C00006050C0A38021581257F950175088106FF
:1002D000C0C005010980A101850319012AB70015D5
:1002E0000126B700950175108100C0050C0901A118
:1002F00001850419012AA002150126A002950175A5
:10030000108100C005010906A101050719E029E7D0
:100310001500250195087501810295017508810177
:100320000507190029FF150026FF009506750881AD
:1003300000050819012905950575019102950175BA
:10034000039101C011241FBECFEFDAE0DEBFCDBFA5
:1003500004B603FE27C08091500290915102A091F3
:100360005202B09153028730904BA740B04BD1F46A
:1003700010925002109251021092520210925302A7
:1003800014BE84B7877F84BF0FB6F894A895809178
:100390006000886180936000109260000FBEE0E012
:1003A000F8E3099511E0A0E0B1E0E4EBFEE302C060
:1003B00005900D92A838B107D9F722E0A8E8B1E07E
:1003C00001C01D92A035B207E1F70E9490190C946C
:1003D000581F0C94000081E0089581E008950C946A
:1003E000ED0108950C94F1011F93CF93DF9300D09A
:1003F00000D01F92CDB7DEB749835A836B8330910B
:10040000B50189819A81311114C0662359F02223E4
:1004100049F00E94D614182F682F89819A810E9472
:100420007F1403C00E94AA14182F69817A81812F3A
:1004300004C00E94D61469817A810F900F900F90AA
:100440000F900F90DF91CF911F910C94B302FC019C
:10045000262F408151816281738184810C94F40143
:10046000CF93DF93EC0160E00E942702BE01DF9191
:10047000CF910C94F2010E94B7040C94F4040C94F4
:10048000F00408950E9408100E9441022FEF84E3B7
:100490009CE0215080409040E1F700C000000C94A7
:1004A00003180F931F93CF93DF938C0161E00E9499
:1004B0002702EC01B8010E94EF018823F1F1B80195
:1004C000CE010E941F098823C1F1B801CE010E940C
:1004D0007109882391F1B801CE010E949C0A8823FA
:1004E00061F1F8018281882309F1CB358DE5D807C8
:1004F000C1F050F4C115FCE5DF0781F0CF3DDC45CC
:10050000A9F40E94DA1619C0CC35EDE5DE0761F0DA
:10051000CD35DD4559F40E94691508C00E9442029C
:100520000CC00E94721502C00E947515C801DF91AF
:10053000CF911F910F910C94EB0180E0DF91CF914F
:100540001F910F91089508950C94A30281E00895DE
:100550000C94A602CF93C82F0E94A4028C2F0E9455
:10056000A802CF91089520E3829FC0011124FC01CD
:100570002CE0729FE00DF11D1124E60FF11DEE0F2E
:10058000FF1FEC50FF4F859194910895CF93DF9317
:100590000E94B3020E94C803EC01811521E5920775
:1005A00008F043C0811540E5940708F08AC0883EF2
:1005B000910520F5803E910508F0E6C0883A910546
:1005C00070F4853A910508F074C08130910509F402
:1005D000DBC008F4D7C0049708F0D6C0D3C08F3B67
:1005E000910508F0CFC0C85AD0E0CC0FDD1FCB5E1C
:1005F000DE4F0990D881C02DD464C6C0C11580E2F9
:10060000D80758F4C11521E0D20708F0BDC0CD3E8F
:10061000D10508F4B7C0D065B7C0C11540E4D40710
:1006200008F4B0C0DF70D06AAFC0C11585E5D80747
:10063000A0F4C11524E5D20708F08AC0C11543E52E
:10064000D40708F06FC0C11582E5D80708F054C080
:10065000DC2FCC27C16FD06A97C0C11529E5D2071E
:10066000A0F4C11548E5D40708F077C0C11586E5A8
:10067000D80708F087C08C2F0E945C048F71C82FA8
:10068000D0E0DC2FCC27D0627FC0C1152AE5D2078D
:1006900008F468C0CE0190568115904208F072C0EF
:1006A0008D2F8F710E945C04DD27D0628F71D82B53
:1006B0006BC0C55AD0E0CD5BDE4FC881D0E0D064BE
:1006C00063C074E0969587957A95E1F783709C2FC7
:1006D000937021E030E002C0220F331F9A95E2F7B9
:1006E0003C68382BCF70C695C69580E2C89FE00164
:1006F0001124C22BD32B48C0CE018370992721E04F
:1007000030E002C0220F331F8A95E2F78C2F8695C6
:10071000869540E2849FC0011124E901C82BD92BA2
:10072000DC6832C0CE018370992721E030E002C03E
:10073000220F331F8A95E2F78C2F8695869540E22B
:10074000849FC0011124E901C82BD92BDA681CC091
:10075000DC2FCC27C46FD06A17C0DC2FCC27C06F2A
:10076000D06A12C08C2F8F700E945C0494E0D695E2
:10077000C7959A95E1F7CF70D0E0DC2FCC27D069F0
:10078000C82B02C0C0E0D0E0CE01DF91CF91089528
:100790008238910569F1B0F48133910509F46DC097
:1007A00048F48932910509F463C08A32910509F44D
:1007B00069C008958533910509F455C089339105C1
:1007C000B9F00895833E910569F138F4803E9105B2
:1007D000B1F0823E910509F10895863E9105A9F197
:1007E000873E9105B9F1843E910509F064C023C0AC
:1007F00020912D0220FD4FC021FD4DC00895809114
:100800002D0280FD44C080912E0280FF44C0809163
:100810002D0284FD42C083EE4DC080912D0282FFE7
:1008200038C0F5CF80912D0282FD33C080912E0219
:1008300080FD31C0ECCF80912E0281FF32C08091CB
:100840002D0284FD2AC087EE35C080912D0283FFE2
:1008500026C0F5CF80912D0283FD21C080912E020C
:1008600081FD1FC0ECCF80912D0285FD1CC01DC0F5
:1008700080912D0285FD19C016C080912D0286FD44
:1008800016C017C080912D0286FD13C010C089E3E9
:1008900011C082EE0FC080EE0DC080E00BC086EE6E
:1008A00009C084EE07C089E205C085E303C08AE27F
:1008B00001C081E390E0089590912D0292FF0DC058
:1008C000282F2871283019F4877F846006C0282FCC
:1008D0002471243011F48B7F886093FF0DC0282F82
:1008E0002871283119F4877E846106C0282F24716D
:1008F000243111F48B7E886120912E0220FF0DC0DF
:10090000382F3871383019F4877F816006C0382F4E
:100910003171313011F48E7F886021FF0DC0282F96
:100920002871283119F4877E816106C0282F217132
:10093000213111F48E7E886194FD877E08950C9498
:100940002C160E9450058FE39CE90197F1F700C037
:1009500000000E94500580E00E94DB0480FF04C07C
:100960000E949F040C94031808950C94A1040E9403
:100970003216811102C00E94DA160E943D16809341
:1009800021020E94451690932E0280932D020E9410
:10099000B5040E944116682F70E080E090E00E944C
:1009A000811360910C0270910D0280910E02909162
:1009B0000F020C94B913E82FF0E0EE0FFF1FE95C73
:1009C000FD4F808191810895089580EA8A95F1F71D
:1009D000089500C008950C94E50408950C94ED0466
:1009E0000C94EE040C94ED040C94F204F894E82FAB
:1009F000E295EF70F0E031A1282F2F7081E090E0B8
:100A000001C0880F2A95EAF7982F9095932391A318
:100A100092A1892B82A3789408950F931F93CF936B
:100A2000DF9380EF0E94F60481EF0E94F60484EFCA
:100A30000E94F60487EF0E94F604C6E4D1E002E5C6
:100A400011E089910E94F6040C171D07D1F710924E
:100A5000300210922F021092380210923702109238
:100A600032021092310210923A0210923902109220
:100A700034021092330210923C0210923B02109208
:100A800036021092350210923E0210923D0284E02E
:100A90000E94DE05DF91CF911F910F910C943B02D4
:100AA0007F928F929F92AF92BF92CF92DF92EF92FE
:100AB000FF920F931F93CF93DF93C2E5D1E08FE2B4
:100AC000A82E82E0B82E97E3E92E92E0F92E712C41
:100AD00001E010E06E018881F894E82FE295EF7054
:100AE000F0E021A18F70A80102C0440F551F8A9524
:100AF000E2F7CA01922F982B91A392A180958923A6
:100B000082A378940E94E904E6E4F1E020E030E07A
:100B1000812C912C4191A42FA295AF70B0E09096BA
:100B20008C9190E04F7002C0959587954A95E2F7B9
:100B300080FD08C0C801022E02C0880F991F0A94C8
:100B4000E2F702C080E090E0882A992A2F5F3F4FA9
:100B50002C303105F9F62196F60180810E94F604C9
:100B60000E94EB04F501808191818816990621F09D
:100B70009182808281E001C080E0782AF2E0AF0EAD
:100B8000B11CEA14FB0409F0A5CF272D44E067E36C
:100B900072E08FE292E00E94DF050E943F02872D03
:100BA000DF91CF911F910F91FF90EF90DF90CF9049
:100BB000BF90AF909F908F907F9008950895FF927F
:100BC0000F931F93CF93DF93F82E092F162FD72F54
:100BD000C42F222349F081E080938C010E94B61734
:100BE00090938B0180938A0180918C018823D9F0A6
:100BF00080918A0190918B010E94CE17069798F000
:100C0000EF2DF02FA12FBD2F80E090E04C2F50E072
:100C10008417950734F4219131912D933D930196DA
:100C2000F7CF10928C01DF91CF911F910F91FF9020
:100C300008958091930180FF0BC06091050185E0CC
:100C4000689FB001112475956795759567952BC0C0
:100C500081FF09C06091050185E0689FB001112402
:100C60007595679520C082FF07C06091050185E0FA
:100C7000689FB001112417C0909192019923D1F07F
:100C800060910401961788F72091050185E0289F5F
:100C900090011124929FA001939F500D112470E0A8
:100CA000CA010E94E81E6038710540F461157105A3
:100CB00019F406C065E070E0862F08958FE7089567
:100CC00081E008958091930180FF08C06091010147
:100CD00070E0759567957595679521C081FF06C091
:100CE0006091010170E07595679519C082FF04C09D
:100CF0006091010170E010C090919101992399F0E9
:100D0000609100019617A0F780910101899FC001B1
:100D1000112470E00E94E81E6038710540F46115EE
:100D2000710519F406C061E070E0862F08958FE721
:100D3000089581E008958D3E21F40E941906819561
:100D400004C08E3E29F40E941906809397010895ED
:100D50008F3E21F40E941906819504C0803F29F43A
:100D60000E941906809396010895893F19F40E9404
:100D7000620605C08A3F31F40E9462068195809325
:100D8000980108958B3F21F40E946206819504C06A
:100D90008C3F29F40E9462068093990108959FE098
:100DA000980F983078F421E030E0A90102C0440F98
:100DB000551F9A95E2F7CA0190919501892B80936E
:100DC000950108958D3F21F48091930181600BC0BE
:100DD0008E3F21F480919301826005C08F3F29F4FA
:100DE0008091930184608093930108958D3E39F43E
:100DF0009091970197FF35C01092970159C08E3E90
:100E000029F4909197011916BCF32BC0909196018B
:100E10008F3E29F497FF25C01092960149C0803F6C
:100E200019F41916CCF31DC090919801893F29F44B
:100E30001916BCF4109298013BC08A3F19F497FF31
:100E400010C0F8CF8B3F39F49091990197FF09C0FA
:100E5000109299012DC08C3F21F49091990119169F
:100E6000BCF39FE0980F983080F421E030E0A901B6
:100E700002C0440F551F9A95E2F7CA0180959091E0
:100E8000950189238093950113C08D3F21F48091B2
:100E900093018E7F0BC08E3F21F4809193018D7F53
:100EA00005C08F3F29F4809193018B7F809393013C
:100EB00080919601811106C080919701811102C035
:100EC0001092920180919801811106C08091990140
:100ED000811102C01092910108950E94B6172091CD
:100EE0009601211104C020919701222321F09093B3
:100EF000900180938F0120919801211104C02091CD
:100F00009901222321F090938E0180938D0184E931
:100F100091E00C94E90AEF92FF920F931F93CF9305
:100F2000DF9300D000D000D0CDB7DEB786E0E4E993
:100F3000F1E0DE01119601900D928A95E1F7E090C3
:100F40009601F090970100919801109199011092EB
:100F50009601109297011092980110929901E11058
:100F600003C0FF2009F45DC080918F019091900132
:100F70000E94CE17AC0190919201992339F02091F3
:100F8000060130E02417350758F04BC020910701C7
:100F90008AE0289F900111242417350718F041C0DA
:100FA0009F3F19F09F5F90939201EE2061F00E94A5
:100FB00019061E1414F09FEF01C091E0989F902D28
:100FC000112490939601FF2061F00E9419061F14CE
:100FD00014F09FEF01C091E0989F902D1124909301
:100FE0009701309196013323E1F02091970122235C
:100FF000C1F045EB3403C0011124992319F09093FB
:10100000960103C081E08093960135EB2303C00174
:101010001124992319F09093970103C081E08093E4
:101020009701011103C0112309F45DC080918D0166
:1010300090918E010E94CE17AC019091910199235D
:1010400039F02091020130E02417350758F04BC0E9
:10105000209103018AE0289F90011124241735076D
:1010600018F041C09F3F19F09F5F909391010023BA
:1010700061F00E946206101614F09FEF01C091E02B
:10108000989F902D112490939801112361F00E9454
:101090006206111614F09FEF01C091E0989F902D09
:1010A000112490939901309198013323E1F020911C
:1010B00099012223C1F045EB3403C0011124992387
:1010C00019F09093980103C081E08093980135EB6B
:1010D0002303C0011124992319F09093990103C0AF
:1010E00081E0809399018091960181110BC08091DC
:1010F0009701811107C080919801811103C08091EF
:10110000990181110E946D07EB82FC820D831E8381
:1011100086E0FE013196A4E9B1E001900D928A9536
:10112000E1F726960FB6F894DEBF0FBECDBFDF9174
:10113000CF911F910F91FF90EF900895E4E9F1E0B6
:1011400086E0DF011D928A95E9F7109292011092D4
:1011500091011092930108950F931F93CF93DF9302
:10116000C42FD22FFC0182818823C9F040939C01B7
:101170000E94B61790939B0180939A0180E28C0F96
:10118000883008F057C0C77081E001C0880FCA9549
:10119000EAF7DF91CF911F910F910C94840D80910C
:1011A0009C01481330C080919A0190919B010E944C
:1011B000CE17883C910538F510E21D0FCD17B9F018
:1011C00080E28C0F883040F4C77081E001C0880F46
:1011D000CA95EAF70E948B0D183028F581E09D2F03
:1011E000977001C0880F9A95EAF70E94840D802FAE
:1011F0000E947B0D1830F0F4D77081E001C0880F99
:10120000DA95EAF70AC080E28C0F883098F4C7704C
:1012100081E001C0880FCA95EAF7DF91CF911F9155
:101220000F910C948B0D802FDF91CF911F910F9117
:101230000C947B0DDF91CF911F910F9108950F9327
:101240009C01CB01243F4CE5340731F188F4293D62
:10125000FCE53F07D9F02A3D4CE5340779F1283DFC
:101260003C45A9F506E221EE41EE68ED7CE52BC098
:10127000263FFCE53F07E1F0A8F0273F3C4539F564
:1012800007E225EE46EE67EF7CE51DC007E225EE9E
:1012900045EE69ED7CE517C006E221EE40EE64EF15
:1012A0007CE511C007E225EE44EE65EF7CE50BC05E
:1012B00006E221EE42EE66EF7CE505C008E221E0A1
:1012C00045EE6AED7CE50E94AC0880E008C0FC01B8
:1012D0008281882319F010929C0101C081E00F9156
:1012E0000895CF93DF93EC01FB018281882309F4F9
:1012F0001FC1C230FCE5DF0708F41BC1C6319CE505
:10130000D90738F09E012B5F3C452930310508F0A4
:1013100010C10E94451690932E0280932D02C03179
:10132000ECE5DE0709F4C3C008F041C0C8308CE525
:10133000D80709F49AC0F0F4C430ECE5DE0709F4EC
:1013400087C068F4C2308CE5D80709F477C0C33091
:10135000DC4509F0E3C080912D02826076C0C63082
:10136000ECE5DE0709F46EC008F07BC080912D0229
:1013700088606BC0CC308CE5D80709F485C068F470
:10138000CA30ECE5DE0709F474C008F079C00E94A9
:10139000081080912D02806858C0CE308CE5D807A7
:1013A00009F476C008F07FC080912D028BC0CC3F3D
:1013B000ECE5DE0709F44FC018F5C3318CE5D8071A
:1013C00009F47DC078F4C131ECE5DE0709F473C09F
:1013D000C231DC4509F0A2C00E94081080912D02A4
:1013E0008F7733C0C5318CE5D80709F472C008F493
:1013F00086C0CB3FDC4509F091C080912E023EC0F3
:10140000C115FDE5DF0709F45FC058F4CE3F9CE548
:10141000D90709F444C008F43FC080912E028260CD
:101420002DC0C230FDE5DF0709F475C008F45DC0CA
:10143000C330DD4509F072C080E06EC080912D029E
:10144000816003C080912D02806180932D0266C06F
:1014500080912D0211C080912E02826080932E0215
:101460005DC080912D028062F0CF80912D0280645A
:10147000ECCF80912D0288608460E7CF8160EECF51
:1014800080912D028E7FE1CF80912D028D7FDDCF67
:1014900080912D02877FD9CF80912E0218C0809134
:1014A0002E028D7FDBCF80912D028F7ECECF80915B
:1014B0002D028F7DCACF80912D028F7BC6CF809168
:1014C0002D02877F8B7FC1CF80912E028D7F8E7FF3
:1014D000C5CF80912D0282FB222720F991E092272F
:1014E00090FB82F990FB83F9B0CF80912E02982F68
:1014F000909591708E7F892B90FB81F9AFCF0E94E0
:10150000081080912D0287FB222720F991E0922775
:1015100090FB87F99ACF81E00E94DC1680912D0222
:1015200090912E020E9456160E94081080E001C081
:1015300081E0DF91CF910895CF93DF9386319C4571
:1015400041F5EB010E947815982F8A8120910801BE
:1015500030910901882379F09A7A81E009F480E0DA
:1015600080939D01911102C069E201C065E3C90148
:101570000E9423170AC080919D01811102C069E277
:1015800001C065E3C9010E9425170E94BD1580E0D6
:1015900001C081E0DF91CF9108959093A3018093E2
:1015A000A2010895E091A201F091A301309721F0EA
:1015B0000190F081E02D099480E00895E091A2016E
:1015C000F091A301309721F00280F381E02D09947E
:1015D0000895E091A201F091A301309739F022E043
:1015E000DC012C930480F581E02D0994089520916D
:1015F000A0013091A1012817390771F09093A10142
:101600008093A001E091A201F091A301309721F015
:101610000680F781E02D0994089520919E01309174
:101620009F012817390771F090939F0180939E01C5
:10163000E091A201F091A301309721F00084F1859F
:10164000E02D099408950E94C2176093B101709330
:10165000B2018093B3019093B4016093AD01709394
:10166000AE018093AF019093B001089585B7806873
:1016700085BF85B7806885BF089581E008950C9483
:101680003D0B08950C94410B0C94410B0C94440BAE
:101690000C94410B0C94480B0C94410B0E94360B9C
:1016A0008AE296E10E9427180E944C0B0C944A0B88
:1016B0000E94420B0C94410B0E94AD170E940D0535
:1016C0000C94460B6F927F928F929F92AF92BF9233
:1016D000CF92DF92EF92FF920F931F93CF93DF93FE
:1016E000CDB7DEB72A970FB6F894DEBF0FBECDBFD9
:1016F0000E94500581110E94230B35EA832E31E0B0
:10170000932E00E010E0C02E802F0E94DB045C01CD
:10171000F401619071904F0168267926611471047B
:10172000B1F40F5F1F4F0430110569F78FEF898304
:101730008A831B820E94B6178160782F9D838C83D9
:1017400049815A816B818D810E94180C3AC0809129
:10175000210281FD0E94E404D12CEE24E394F12CBB
:10176000C3018E219F21892B29F10E943F0B8823E1
:10177000A9F0DE82CF82AE20BF2081E0AB2809F441
:1017800080E088870E94B6178160782F9A878987C2
:101790004E815F8168858A850E94180C000F111F99
:1017A000F801EB55FE4F80819181E826F926F18200
:1017B000E08207C0D394EE0CFF1CFCE0DF12D0CF18
:1017C000B0CF0E948B070E94D20A9091A401891782
:1017D000D1F00E94D20A8093A4012A960FB6F89401
:1017E000DEBF0FBECDBFDF91CF911F910F91FF9054
:1017F000EF90DF90CF90BF90AF909F908F907F90B1
:101800006F900C94AA022A960FB6F894DEBF0FBE12
:10181000CDBFDF91CF911F910F91FF90EF90DF909F
:10182000CF90BF90AF909F908F907F906F900895D2
:10183000DF92EF92FF920F931F93CF93DF93CDB779
:10184000DEB72B970FB6F894DEBF0FBECDBFF42ED8
:10185000052F162FE72ED82E61110E949815FE0134
:10186000319686E0DF011D928A95E9F77E2D4F2D96
:10187000502F612F8D2D9E810E94C1122B960FB685
:10188000F894DEBF0FBECDBFDF91CF911F910F91B6
:10189000FF90EF90DF900895FC01808191810E947C
:1018A00018150895CF93882309F4A4C0C82F82384F
:1018B000C1F40E94D20A81FD9DC069E380910801B4
:1018C000909109010E9423170E94BD152FEF81EE10
:1018D00094E0215080409040E1F700C0000069E3AF
:1018E00019C0833801F50E94D20A80FD83C063E5E8
:1018F00080910801909109010E9423170E94BD1553
:101900002FEF81EE94E0215080409040E1F700C03D
:10191000000063E580910801909109010E9425175C
:10192000CF910C94BD158438C1F40E94D20A82FD77
:1019300061C067E480910801909109010E9423171A
:101940000E94BD152FEF81EE94E021508040904021
:10195000E1F700C0000067E4DDCF8CEF8C0F813A27
:10196000D0F46C2F80910801909109010E94ED162E
:10197000882349F06C2F80910801909109010E9401
:1019800025170E94BD156C2F8091080190910901C7
:101990000E942317C5CF80E28C0F883048F4C770AF
:1019A00081E001C0880FCA95EAF70E947B15B8CF85
:1019B000EBE5EC0FE33040F4F0E0EC57FE4F8081B4
:1019C00090E0CF910C94F70AE8E5EC0FE73150F482
:1019D000F0E0EE0FFF1FEA5AFE4F80819181CF9118
:1019E0000C940D0BCD3E30F08C2F0E949B06CF91B6
:1019F0000C946D07CF910895882309F464C0823850
:101A000079F40E94D20A81FF5EC069E380910801E7
:101A1000909109010E9423170E94BD1569E310C02F
:101A20008338B1F40E94D20A80FF4DC063E58091F3
:101A30000801909109010E9423170E94BD1563E5DA
:101A400080910801909109010E9425170C94BD1501
:101A5000843879F40E94D20A82FF35C067E480910D
:101A60000801909109010E9423170E94BD1567E4A7
:101A7000E7CF9CEF980F913A10F4682FE1CF90E2F6
:101A8000980F983050F4877091E001C0990F8A95B3
:101A9000EAF7892F0E948115D9CF9BE5980F9330E3
:101AA00020F480E090E00C94F70A98E5980F9731C5
:101AB00020F480E090E00C940D0B8D3E20F00E940D
:101AC000F6060C946D0708951F93CF93DF93182F9C
:101AD000EB010E94520C209741F08FE99FE00197A3
:101AE000F1F700C000002197F6CF812FDF91CF9151
:101AF0001F910C94FC0C893319F060E070E002C077
:101B000060E570E00C94640D882321F00E947B1541
:101B10000C94BD150895882321F00E9481150C9422
:101B2000BD150895CF92DF92EF92FF920F931F930E
:101B3000CF93DF937C01D62FC72FFC011281058143
:101B400002950F700E945015882399F0112389F097
:101B50008C2F807F803421F080E28D0F883048F018
:101B600082E00E940D160E94501591E0D82ED926D1
:101B700001C0D12CCC2EC2948FE0C8228C2D90E0D5
:101B80008C30910508F0B6C1FC01EA5AFF4F0C9465
:101B9000FC1E8C2F807FCF70882311F0C295C07FF0
:101BA000112399F0CC2309F491C180E28D0F883084
:101BB00010F0D11104C08C2F0E947B1503C08C2F14
:101BC0000E948B150E94BD1581C18D2F0E94FC0CB7
:101BD000CC2309F48FC180E28D0F883010F0D11131
:101BE00004C08C2F0E94811503C08C2F0E94911578
:101BF0000E94BD157FC18C2F807FCF70803211F085
:101C0000C295C07FDD2319F0D130C9F022C0112365
:101C100071F0002341F0013031F40E949E158C2BAD
:101C20000E94A61567C10E949E158C2B1DC0002323
:101C300019F0013009F45EC10E94B31525C01123CB
:101C400021F0063008F056C10EC0053008F052C130
:101C50001BC0112361F0002331F0F701858180FF63
:101C600035C18F7085838C2F0E94840D43C1002362
:101C700059F0D93309F03BC1FFEF07EE13E0F15003
:101C800000401040E1F731C18C2F0E948B0D32C112
:101C90008C2F86958695837019F0813061F02AC16A
:101CA000112321F08D2F9C2F937002C080E090E0D3
:101CB0000E94F70A27C1112321F08D2F9C2F9370CA
:101CC00002C080E090E00E940D0B1CC18D2F1123FB
:101CD00019F00E949B0602C00E94F6060E946D0742
:101CE00011C18C2F837009F047C0111107C12D2F2E
:101CF000229526952770220F220F6D2F6F70862F49
:101D000090E0A0E0B0E0022E04C0880F991FAA1F47
:101D1000BB1F0A94D2F7D4FF10C04FE050E060E040
:101D200070E004C0440F551F661F771F2A95D2F735
:101D3000409550956095709503C040E050E0BA0121
:101D4000C695C695C3708A019B01082B192B2A2BB7
:101D50003B2BC901B801C23049F058F4C13019F029
:101D60000E949513CBC00E948313C8C00E94A71382
:101D7000C5C00E948113C2C0112319F08C2F81703D
:101D800001C08695882309F4B9C02D2F2295269588
:101D90002770220F220F6D2F6F70862F90E0A0E02A
:101DA000B0E0022E04C0880F991FAA1FBB1F0A941F
:101DB000D2F7D4FF10C04FE050E060E070E004C004
:101DC000440F551F661F771F2A95D2F740955095EF
:101DD0006095709503C040E050E0BA01C695C69585
:101DE000C3708A019B01082B192B2A2B3B2BC9019D
:101DF000B801C23049F058F4C13019F00E945A14A9
:101E00007DC00E9448147AC00E946C1477C00E9462
:101E1000BB1374C0CF70112339F08C2F0E94E113D3
:101E20008D2F0E94840D6AC08D2F0E948B0D8C2FE8
:101E30000E94021463C0D23F01F128F4D03F41F068
:101E4000D13FA1F03FC0D33FF9F0D43F39F13AC0C0
:101E5000112341F0053008F04DC08C2F8F710E9486
:101E6000271448C0063008F045C0F7CF112339F0D9
:101E70008C2F8F710E94E1133DC01123C9F38C2F69
:101E80008F710E94021436C0112329F08C2F8F719C
:101E90000E94CC132FC00E94C7132CC0112349F0FD
:101EA000CF718C2F0E94E11363E08C2F0E94F215FA
:101EB00021C081E00E940D160230E0F082E00E9415
:101EC0000D1618C0112331F0002391F28D2F0E94BE
:101ED000520C10C0002399F2D93349F41FEF27EEBA
:101EE00033E0115020403040E1F700C000008D2F5A
:101EF0000E94FC0C88EF8C0D843020F40E94D20AE2
:101F00000E94AA02DD20C9F00E944C1580FD15C078
:101F1000F70112820E9446150E94E113C7010E9438
:101F2000BE0F0E944615DF91CF911F910F91FF9038
:101F3000EF90DF90CF900C940214DF91CF911F911E
:101F40000F91FF90EF90DF90CF9008950F931F9324
:101F5000CF93DF93EC01688179818A810E942315F8
:101F60008C010E947E140E946F13B801CE010E9462
:101F7000920DDF91CF911F910F910895CF93DF9331
:101F8000EC01988189812B813C81232B31F08F3F9B
:101F900031F481E09F3F19F403C081E001C080E08B
:101FA00080FD19C0CE010E94510281110CC00E9417
:101FB0005015882381F08A81882369F082E0DF91BF
:101FC000CF910C940D16CE010E94A60FCE01DF9189
:101FD000CF910C943002DF91CF91089580E090E092
:101FE0000E94F70A80E090E00E940D0B0E94981575
:101FF0000E949B150E94BD150E949E080C946D07BF
:1020000080910801909109010E9427170C94EE0F0E
:102010000E9488150C940010E92FE295EF704E2F66
:1020200050E0FA013297EE30F105B0F4EE59FF4F6F
:102030000C94FC1E803F91F018F4883E68F40EC0AA
:10204000843F51F40BC0883E48F0813F29F406C01C
:1020500093FB882780F9089580E0089581E0089532
:102060000E9418150E940C100895CF93DF9300D0A2
:1020700000D01F92CDB7DEB70F900F900F900F904A
:102080000F90DF91CF910895CF93DF9300D000D0D0
:1020900000D0CDB7DEB726960FB6F894DEBF0FBEE0
:1020A000CDBFDF91CF9108951F93CF93DF93C09160
:1020B000B60116E08091B701C81799F0D0E01C9FD7
:1020C000F0011D9FF00D1124E854FE4F4081518115
:1020D00062817381848195810E9444102196C7702A
:1020E000E9CFDF91CF911F9108954091E801509180
:1020F000E9016091EA017091EB018091EC0190910E
:10210000ED010C9444100F931F93CF93DF938091B4
:10211000ED0182958F7009F05DC08091EA018823FE
:1021200009F458C08091B6011091B7016091E8019F
:102130007091E901C091EB01D091EC0191E06F3F0A
:1021400009F090E0292F06E0811709F443C0209799
:1021500021F07F3F21F030E003C031E001C0322F99
:1021600090E030FD34C0089FF001099FF00D11246C
:10217000DF01A854BE4F11963C911197371327C029
:102180003C91361324C012963C91129731111FC016
:1021900013964D915C9114974C1B5D0B483C510577
:1021A000B0F48091ED018F7080618093ED01E35474
:1021B000FE4F80818F708061808388EE91E00E9465
:1021C000BE0FDF91CF911F910F910C945410019687
:1021D0008770BACFDF91CF911F910F9108959F9291
:1021E000AF92BF92CF92DF92EF92FF920F931F9325
:1021F000CF93DF93CDB7DEB761970FB6F894DEBF0C
:102200000FBECDBF8C0185E0F801DE011D96019067
:102210000D928A95E1F7F80140815181E280909119
:10222000E8016091E9012091EB013091EC01211569
:10223000310531F06F3F31F481E09F3F19F403C065
:1022400081E001C080E0F82FF1709F2E80FD46C133
:10225000F801A380B48088EEC82E81E0D82EF090DB
:10226000EA01F501E21BF30BFF2009F4DFC08091C6
:10227000ED01E83CF10508F09BC0282F207F09F014
:1022800052C0561313C0491311C0FE2CE1100EC0EA
:102290008F7080618093ED010E947510C6010E94CD
:1022A000BE0F8091ED01F801858358C1AB2831F054
:1022B0005F3F31F481E04F3F19F403C081E001C07A
:1022C00080E080FD03C081E08E2502C080E090E0C8
:1022D000F82FF170FF2E80FF1CC08091B601209175
:1022E000B70136E0821709F417C190E0389FF0017A
:1022F000399FF00D1124E854FE4F6181561306C03A
:102300006081461303C06281E61203C001968770A4
:10231000E9CFFE2CEE2009F421C18091ED0181600E
:102320008093ED015AC0561306C0491304C0E11052
:1023300002C0F8019FC04D875E878D859E850E94F3
:102340003010882379F1EE2069F12091ED01822F80
:1023500082958F7090E0029774F08091E8019091DF
:10236000E90198878F831986BB86AA862C87CE01C0
:1023700007960E94BE0F86E0F801A8EEB1E001903A
:102380000D928A95E1F70E9483100E9475100DC08E
:10239000561729F14D875E878D859E850E943010E6
:1023A00081112CC0C8010E94BE0FFF24F394D6C037
:1023B000282F207F69F77A2DB98AA88A6E2D8989FE
:1023C0000E94351088EE91E00E94BE0F86E0F60173
:1023D00011928A95E9F70E947510F12CBFC049133C
:1023E000D9CFE110D7CFF8018583C8010E94BE0F75
:1023F00086E0F60111928A95E9F7B0C0EE2091F2DD
:102400002091ED01822F82958F7090E002970CF45D
:10241000B2CF8091E8019091E9019A8389831B8270
:10242000BD82AC822E83CE010196A3CFE83CF1059C
:1024300008F047C0FE2CEE2009F4B4CF561330C08C
:1024400049132EC02091ED0120FD21C0822F8295DD
:102450008F70482F50E041155105C9F0F8012583D0
:102460004F30510541F08F5F982F9295907F822FCA
:102470008F70892B8583C8010E94BE0F86E0F8010A
:10248000A8EEB1E001900D928A95E1F742C086E096
:10249000F801A8EEB1E001900D928A95E1F75EC0D7
:1024A0004D875E878D859E850E943010811163CF98
:1024B0008091ED0181608093ED01C8010E94BE0F03
:1024C0004DC07A2DB98AA88A6E2D89890E9435104F
:1024D00086E0F60111928A95E9F71BC0EE2009F417
:1024E00061CF4D875E878D859E850E943010F82EC6
:1024F000882309F457CF86E0F801A8EEB1E00190F7
:102500000D928A95E1F788EE91E00E944C0C0E94B2
:1025100083100E94751022C04D875E878D859E8531
:102520000E941815292F22952F70223028F49F70B1
:1025300039F0811105C00BC0243028F49F7049F494
:10254000805E883020F0C8010E94BE0F9F2CF92CBD
:1025500005C0F8019581907F99F7F9CF8F2D61968D
:102560000FB6F894DEBF0FBECDBFDF91CF911F91A4
:102570000F91FF90EF90DF90CF90BF90AF909F9022
:1025800008951F93CF93DF93CDB7DEB72C970FB687
:10259000F894DEBF0FBECDBF4F83588769877A8717
:1025A0008B879C87CE0107960E94EF108823D1F07D
:1025B0009F8188852A853B85232B31F08F3F31F41D
:1025C00081E09F3F19F403C081E001C080E080FDFD
:1025D00047C04F81588569857A858B859C850E9487
:1025E00044103EC086E0FE013796DE011196019050
:1025F0000D928A95E1F7FF81E8856A857B856115F3
:10260000710531F0EF3F31F481E0FF3F19F403C071
:1026100081E001C080E080FD23C02091B70130E05F
:10262000C9010196877099274091B60150E084173F
:102630009507F1F1F983EA837D836C8396E0929F9D
:10264000D001939FB00D1124A854BE4FFE013196C6
:1026500001900D929A95E1F78093B7010E94541072
:1026600016E08091B6019091B701891771F1189F1A
:10267000C001112488549E4F0E94EF10882329F135
:10268000E091B6011E9FF0011124E854FE4F4081F5
:10269000518162817381848195810E94441080916F
:1026A000B60190E00196877099278093B601D9CF43
:1026B0000E9408101092B7011092B601E8EEF1E006
:1026C00086E0DF011D928A95E9F72C960FB6F89403
:1026D000DEBF0FBECDBFDF91CF911F91089508954A
:1026E00008950C9470130C9471130E9473136093EB
:1026F00010027093110280931202909313020C94B3
:10270000EE0F0C9475130F931F930091100210910C
:1027100011022091120230911302602B712B822B37
:10272000932B1F910F910C9475130F931F9300918E
:1027300010021091110220911202309113026023B5
:102740007123822393231F910F910C9475130F9380
:102750001F930091100210911102209112023091EA
:10276000130260277127822793271F910F910C94E2
:1027700075130C9470130E94B91360930C0270933C
:102780000D0280930E0290930F020C94EE0F60E006
:1027900070E0CB010C94BB130F931F9341E050E00A
:1027A00060E070E08A019B0104C0000F111F221F2E
:1027B000331F8A95D2F7C901B8011F910F910C946C
:1027C000BB130F931F9341E050E060E070E004C042
:1027D000440F551F661F771F8A95D2F780910C0210
:1027E00090910D02A0910E02B0910F028A019B01FF
:1027F000082B192B2A2B3B2BC901B8011F910F91D4
:102800000C94BB130F931F9341E050E060E070E025
:1028100004C0440F551F661F771F8A95D2F7409555
:1028200050956095709580910C0290910D02A09149
:102830000E02B0910F028A019B01082319232A235B
:102840003B23C901B8011F910F910C94BB130F9347
:102850001F9341E050E060E070E004C0440F551F5A
:10286000661F771F8A95D2F780910C0290910D0216
:10287000A0910E02B0910F028A019B01082719272F
:102880002A273B27C901B8011F910F910C94BB1354
:102890000F931F9300910C0210910D0220910E02D4
:1028A00030910F02602B712B822B932B1F910F9174
:1028B0000C94BB130F931F9300910C0210910D0207
:1028C00020910E0230910F02602371238223932303
:1028D0001F910F910C94BB130F931F9300910C0247
:1028E00010910D0220910E0230910F026027712786
:1028F000822793271F910F910C94BB1308952CE00E
:10290000929F800D1124E82FE695E695E695877055
:1029100051E001C0550F8A95EAF785E0E89FF00184
:102920001124E251FE4F20E030E070E04081CB0105
:10293000022E02C0969587950A94E2F781708195E0
:1029400084278523842781932F5F3F4F25303105CE
:1029500069F708952CE0929F800D1124682F6695E9
:1029600066956695982F977085E0689FB001112451
:1029700040E050E080E0FB01E40FF51FE251FE4F24
:10298000208130E0092E02C0369527950A94E2F79F
:1029900021703327042E01C0220F0A94EAF7822BFC
:1029A0004F5F5F4F4530510531F70895BF92CF9289
:1029B000DF92EF92FF920F931F93CF93DF938C01DF
:1029C000C0900C02D0900D02E0900E02F0900F0229
:1029D0008091100290911102A0911202B091130205
:1029E000C82AD92AEA2AFB2ACFE1D0E0D701C601BA
:1029F0000C2E04C0B695A795979587950A94D2F7A3
:102A000080FD04C0219790F7B12C07C0BC2EB801FF
:102A10008C2F0E94C6020197A9F38B2DDF91CF91D5
:102A20001F910F91FF90EF90DF90CF90BF9008958E
:102A3000CF93DF93EC010E94D614BE010E94C60220
:102A4000DF91CF9108951F93CF93DF93EB01909186
:102A5000B501992321F0CB010E94181513C08823DA
:102A600049F0CB010E94D614182F682FCE010E9486
:102A70007F1404C0CB010E94AA14182FBE01812F1D
:102A80000E94C602DF91CF911F9108958091140298
:102A90008595859585950895809114028770089590
:102AA00090911402977081E009F480E0089590916C
:102AB0002E0292FB222720F9281751F080FB92F971
:102AC00090932E0280912D0290912E020C94561616
:102AD000089580912E0282FB882780F991E0892752
:102AE0000C94571581E00C94571580E00C94571501
:102AF00080912002089590912002892B80932002DA
:102B00000895809590912002892380932002089552
:102B100010922002089590911F02892B80931F022A
:102B20000895809590911F02892380931F02089534
:102B300010921F02089510921E02089580911502AE
:102B4000089508950C94A1150C94A21590912E024D
:102B500092FD08C090911502981721F080931502FC
:102B60000C94A415089580911502882329F01092E1
:102B7000150280E00C94A4150895E0910801F091ED
:102B80000901809120028083E0910801F091090100
:102B9000908180911F02892B8083E0910801F09140
:102BA0000901908180911E02892B808380911502FA
:102BB000882381F0E0910801F09109019081892B2F
:102BC000808380910801909109010E94E116811192
:102BD0000E94B31580910801909109010C94DE0ABE
:102BE0000C94A11590912E0292FD10C098E0899F3F
:102BF00090011124262B209314020E94E11380914E
:102C000014028595859585950C94F0150C94E11327
:102C10001092140280E00C94F0152091140280951B
:102C2000822380931402982F977041F430E0482F4C
:102C3000082E000C550B2417350721F490912E0215
:102C400092FF07C08595859585950E9402140C9486
:102C50000816089580E008956FEF7FEF80E090E020
:102C60000C94421F80E090E00E941E1F21E08A3EEB
:102C70009E4F09F020E0822F089582E090E00C94AE
:102C8000161F83E090E00C94161FCF9384E090E031
:102C90000E94161FC82F82E290E00E94161F2C2F60
:102CA00030E0A901582BCA01CF910895CF93C92FC5
:102CB000682F84E090E00E94241F6C2F82E290E055
:102CC000CF910C94241FAB01BC018FE090E00C94D9
:102CD000361FAB01BC0183E190E00C94361F60E02D
:102CE00070E0CB010C94691660E070E0CB010E94AB
:102CF00063160C946F166AEE7EEF80E090E00E94FF
:102D0000421F60E082E090E00E94241F60E083E0C8
:102D100090E00E94241F1092100210921102109253
:102D200012021092130260E084E090E00E94241FDF
:102D300060E082E290E00E94241F60E085E090E085
:102D40000E94241F60E086E090E00E94241F6FEF45
:102D500087E090E00E94241F40E050E0BA0188E044
:102D600090E00E94361F60E08DE090E00E94241FFA
:102D700040E050E0BA0188E190E00E94361F60E038
:102D800087E190E00E94241F40E050E0BA018CE10E
:102D900090E00E94361F60E070E080E290E00E94C8
:102DA000421F40E050E0BA0188E190E00E94361FE7
:102DB0000C9474160C947B16682F8EE090E00C94A3
:102DC000241FFC01329697E080E0915029F0219178
:102DD0002223D9F38F5FF9CF0895662349F0FC01D0
:102DE000329608962191621729F0E817F907D1F772
:102DF00080E0089581E008959C01FC0132969FEFE8
:102E000080E04191461789F09F3F19F4411101C0BC
:102E1000982F8F5F8630A9F79F3F39F0F901E90FAE
:102E2000F11D97FDFA956283089508959C012A5F2C
:102E30003F4FFC014281461301C012820196821766
:102E40009307B9F708950C94FC160C941617029684
:102E500026E0FC0111922A95E9F7089508950C9453
:102E60002E170C942E17CF930E9431170E945005F5
:102E70000E942F17C0E08C2F0E94DB04892B29F4BD
:102E8000CF5FC430C1F780E001C081E0CF910895E9
:102E90000C942E170C94481780914702843049F106
:102EA0000E944A1780E00E94AA021092220220E4A7
:102EB00088E190E00FB6F894A895809360000FBE6B
:102EC0002093600083B7817F846083BF83B7816074
:102ED00083BF7894889583B78E7F83BF0FB6F894AD
:102EE000A8958091600088618093600010926000D6
:102EF0000FBE08950C942E170E9408100E94D20A4B
:102F00000E94AA020C947A171F920F920FB60F928A
:102F100011248F939F93AF93BF93809122028111CD
:102F200013C080913F0290914002A0914102B09164
:102F300042024196A11DB11D80933F029093400231
:102F4000A0934102B0934202BF91AF919F918F91A4
:102F50000F900FBE0F901F90189582E084BD93E0F4
:102F600095BD9AEF97BD80936E0008952FB7F894A2
:102F700080913F0290914002A0914102B0914202A3
:102F80002FBF08952FB7F89460913F0270914002CF
:102F900080914102909142022FBF08959C014FB74A
:102FA000F89480913F0290914002A0914102B0912B
:102FB00042024FBF821B930B089578941F920F9289
:102FC0000FB60F9211248F939F93AF93BF9380916D
:102FD0003F0290914002A0914102B09142020196BD
:102FE000A11DB11D80933F0290934002A093410226
:102FF000B0934202BF91AF919F918F910F900FBEFE
:103000000F901F90189581E08093E00080E28093FC
:10301000D8001092C9008FE19EE40197F1F700C03B
:10302000000087E090EBDC01809350029093510206
:10303000A0935202B09353029CE088E10FB6F8943B
:10304000A895809360000FBE90936000FFCF90938F
:10305000890180938801089580912B020895CF9370
:10306000DF9300D01F92CDB7DEB790914702943026
:1030700019F589837B836A8382E08093E9008FEF6F
:103080009091E800815095FD06C095ED9A95F1F775
:1030900000008111F5CF8091E80085FF0DC040E070
:1030A00050E063E070E0CE0101960E944A1A8091E0
:1030B000E8008E778093E8000F900F900F90DF91DB
:1030C000CF910895BC0184E00C942F18BC0183E0DB
:1030D0000C942F1822E02093E9002FEF3091E800A4
:1030E000215035FD06C035ED3A95F1F7000021116C
:1030F000F5CF2091E80025FF0BC040E050E066E0EE
:1031000070E00E944A1A8091E8008E778093E80070
:103110000895CF93DF9321E02093E9002FEF3091C2
:10312000E800215035FD06C035ED3A95F1F7000075
:103130002111F5CF2091E80025FF14C0EC0140E0FB
:1031400050E068E070E00E944A1A8091E8008E77B3
:103150008093E80088E0FE01A3E2B2E001900D92C6
:103160008A95E1F7DF91CF91089580914602811110
:1031700009C00E94DB1B0E94381C8091E200846021
:103180008093E200089510924602089508950895EC
:10319000089542E061EC81E00E94541B42E261EC40
:1031A00082E00C94541B80914902833009F460C082
:1031B00030F4813071F0823009F499C008958A307A
:1031C00009F485C08B3009F46BC0893009F0A7C0C1
:1031D00020C080914802813A09F0A1C08091E800A6
:1031E000877F8093E80080914C0290914D02892B5B
:1031F00021F468E083E292E003C060E080E090E0C8
:1032000070E00E94951A8091E8008B778093E80027
:10321000089580914802813209F081C080914C026A
:1032200090914D02029708F07AC08091E800877F64
:103230008093E8008091E80082FD05C080914702FC
:103240008111F8CF6CC02091F3008091F20090E0E2
:10325000922B029729F48091F1008B7F813021F429
:103260008091F10080932B028091E8008B7753C00E
:1032700080914802813A09F052C080914C029091AD
:103280004D02892B09F04BC08091E800877F809325
:10329000E8008091E80080FFFCCF8091140136C0E7
:1032A000809148028132D9F580914C0290914D0273
:1032B000892BA9F58091E800877F8093E8000E9420
:1032C000891B80914A02809314010C94081080910C
:1032D0004802813221F58091E800877F8093E800E1
:1032E0000E94891B80914B0280932C02089580914B
:1032F0004802813AA1F48091E800877F8093E8003A
:103300008091E80080FFFCCF80912C028093F10037
:103310008091E8008E778093E8000C94891B0895D3
:1033200084B7877F84BF0FB6F894A895809160001A
:10333000886180936000109260000FBE90E080E88A
:103340000FB6F89480936100909361000FBE0E94C5
:103350004E0B0E94DB1B0E94381C8091E2008460AF
:103360008093E20078940E94CD1E0E945C0B8AE05C
:1033700091E00E94CD0A809147028530A9F48091A6
:103380004702853079F40E944C17809145028823CA
:10339000B1F30E943317882391F30E94341A0E94DC
:1033A0000810EDCF0E947C170E94620B0E94580B00
:1033B000E2CF0C94DB19292F332723303105C9F0D4
:1033C00060F42130310581F02230310509F044C02C
:1033D0008BE390E02CE332E043C021323105E1F091
:1033E0002232310549F138C082E190E027E732E02E
:1033F00037C099278130910549F028F0029761F58F
:10340000E4E1F2E005C0E8E3F2E002C0E6E2F2E067
:10341000849190E09F0124C06115710541F06130F5
:103420007105D1F489E090E027E632E019C089E027
:1034300090E02EE432E014C06115710541F0613076
:10344000710551F48BE790E029E832E009C080E48F
:1034500090E024E033E004C080E090E020E030E041
:10346000FA0131832083089580E189BD82E189BD1D
:1034700009B400FEFDCF8091D8008F7D8093D800E5
:103480008091E00082608093E0008091E00081FD07
:10349000FCCF0895CF92DF92EF92FF920F931F938C
:1034A000CF93DF93EC018B017A010E94A81B81115D
:1034B00033C0E114F10439F0F70180819181081BD8
:1034C000190BC80FD91FC12CD12C0115110519F1E9
:1034D0008091E80085FD16C08091E8008E7780938A
:1034E000E800E114F10449F0F70180819181C80EF0
:1034F000D91ED182C08285E00FC00E94A81B8823FC
:1035000021F30AC089918093F10001501109FFEF66
:10351000CF1ADF0ADACF80E0DF91CF911F910F91B0
:10352000FF90EF90DF90CF90089520914E02309160
:103530004F022617370748F06115710539F42091BD
:10354000E8002E772093E80001C0B901FC0120E0DB
:103550006115710579F1809147028823F1F1853079
:10356000F1F18091E80083FD3CC08091E80082FD8C
:103570002EC08091E80080FFEBCF2091F300809176
:10358000F20090E0922B6115710551F088309105A1
:1035900038F421912093F100615071090196F3CF25
:1035A00021E0089709F020E08091E8008E77809371
:1035B000E800CECF2111CFCF0AC0809147028823E7
:1035C00061F0853061F08091E80083FD0AC0809150
:1035D000E80082FFF2CF80E0089582E0089583E062
:1035E000089581E0089520914E0230914F022617F0
:1035F000370748F06115710539F42091E8002E77FE
:103600002093E80001C0B901FC0120E061157105BB
:1036100091F180914702882309F440C0853009F474
:103620003FC08091E80083FD3DC08091E80082FDAD
:103630002FC08091E80080FFE9CF2091F3008091B6
:10364000F20090E0922B6115710559F088309105D8
:1036500040F424912093F100319661507109019654
:10366000F2CF21E0089709F020E08091E8008E7702
:103670008093E800CBCF2111CCCF0AC080914702C4
:10368000882361F0853061F08091E80083FD0AC0F5
:103690008091E80082FFF2CF80E0089582E00895F3
:1036A00083E0089581E00895982F973068F590930E
:1036B000E900981739F07091EC002091ED005091DD
:1036C000F00003C0242F762F50E021FD02C09F5F41
:1036D000ECCF3091EB003E7F3093EB003091ED006A
:1036E0003D7F3093ED003091EB0031603093EB0083
:1036F0007093EC002093ED005093F0002091EE00C9
:1037000027FDE5CF80E008958F708093E90081E088
:1037100008958091480287FF11C08091E80082FDE2
:1037200005C0809147028111F8CF11C08091E80057
:103730008B770BC080914702882349F08091E80085
:1037400080FFF8CF8091E8008E778093E80008959D
:103750002091E4003091E50095E64091EC00842F43
:10376000817040FF23C08091E80080FD1DC08091E2
:103770004702882399F0853099F08091EB0085FD10
:1037800011C04091E4005091E5002417350729F35A
:10379000915011F09A01E1CF84E0089582E00895FC
:1037A00083E0089581E0089580E008954091E80065
:1037B00042FFDDCF08950E94491C0E94511CE0EE9B
:1037C000F0E0808181608083E8EDF0E080818F7798
:1037D000808319BCA7EDB0E08C918E7F8C938081A3
:1037E0008F7E80831092460208950F931F93CF938C
:1037F000DF930E94491C0E94511CC8EDD0E08881D3
:103800008F77888388818068888388818F7D88838B
:1038100019BC109247021092430210924502109276
:10382000440200EE10E0F80180818B7F8083888164
:103830008160888342E060E080E00E94541BE1EEFA
:10384000F0E080818E7F8083E2EEF0E08081816015
:103850008083808188608083F80180818E7F80836F
:10386000888180618883DF91CF911F910F910895A6
:10387000E8EDF0E080818F7E8083E7EDF0E08081ED
:103880008160808384E082BF81E0809346020C9453
:10389000F51BE8EDF0E080818E7F80831092E200DE
:1038A00008951092DA001092E10008951F920F928D
:1038B0000FB60F9211242F933F934F935F936F9303
:1038C0007F938F939F93AF93BF93EF93FF938091D9
:1038D000E10082FF0BC08091E20082FF07C080916F
:1038E000E1008B7F8093E1000E94CC1E8091DA0082
:1038F00080FF1FC08091D80080FF1BC08091DA003C
:103900008E7F8093DA008091D90080FF0DC080E126
:1039100089BD82E189BD09B400FEFDCF81E08093BD
:1039200047020E94B51805C019BC109247020E94B8
:10393000C3188091E10080FF19C08091E20080FFF0
:1039400015C08091E2008E7F8093E2008091E200BA
:1039500080618093E2008091D80080628093D800DB
:1039600019BC85E0809347020E94C7188091E1004E
:1039700084FF30C08091E20084FF2CC080E189BDCB
:1039800082E189BD09B400FEFDCF8091D8008F7D12
:103990008093D8008091E1008F7E8093E100809138
:1039A000E2008F7E8093E2008091E200816080934C
:1039B000E20080914302882311F084E007C08091E7
:1039C000E30087FD02C081E001C083E080934702ED
:1039D0000E94C8188091E10083FF29C08091E20015
:1039E00083FF25C08091E100877F8093E10082E022
:1039F00080934702109243028091E1008E7F809372
:103A0000E1008091E2008E7F8093E2008091E200ED
:103A100080618093E20042E060E080E00E94541BFD
:103A20008091F00088608093F0000E94C618FF919A
:103A3000EF91BF91AF919F918F917F916F915F9126
:103A40004F913F912F910F900FBE0F901F9018959F
:103A50001F920F920FB60F9211242F933F934F9303
:103A60005F936F937F938F939F93AF93BF93CF9306
:103A7000DF93EF93FF93C091E900CF708091EC004A
:103A8000D82FD17080FDD0E81092E9008091F0002D
:103A9000877F8093F00078940E946C1D1092E9005B
:103AA0008091F00088608093F000CD2BCF70C093A0
:103AB000E900FF91EF91DF91CF91BF91AF919F917D
:103AC0008F917F916F915F914F913F912F910F90C7
:103AD0000FBE0F901F9018951F93CF93DF93CDB714
:103AE000DEB7AA970FB6F894DEBF0FBECDBFE8E4ED
:103AF000F2E08091F100819322E0E035F207C9F70E
:103B00000E94D3188091E80083FF2EC18091480263
:103B100090914902492F50E04A30510508F024C1E4
:103B2000FA01E059FF4F0C94FC1E803821F08238D6
:103B300009F01AC108C0809144029091450299236E
:103B400089F082600FC080914C028F70873008F03E
:103B50000BC18093E9008091EB0085FB882780F9F9
:103B60001092E9009091E800977F9093E80080938D
:103B7000F1001092F100D1C0282F2D7F09F0F4C080
:103B8000882319F0823061F0EFC080914A028130C1
:103B900009F0EAC0933009F080E0809345022EC01E
:103BA00080914A0281112AC080914C028F702FEFC0
:103BB000280F263008F0D8C08093E9002091EB0050
:103BC00020FF1CC0933021F48091EB00806214C070
:103BD0009091EB0090619093EB0021E030E0A9011F
:103BE00002C0440F551F8A95E2F74093EA001092F5
:103BF000EA008091EB0088608093EB001092E9006E
:103C00008091E800877F8093E8000E94891BACC008
:103C10008111AAC010914A021F778091E300807839
:103C2000812B8093E3008091E800877F8093E800F8
:103C30000E94891B8091E80080FFFCCF8091E30007
:103C400080688093E300111102C082E001C083E02C
:103C50008093470289C08058823008F085C08091E7
:103C60004A0290914B028C3D53E0950779F583E031
:103C70008A838AE289834FB7F894DE01139620E0A5
:103C80003EE051E2E32FF0E050935700E49120FF33
:103C900003C0E295EF703F5FEF708E2F90E0EA3047
:103CA00010F0C79601C0C0968D939D932F5F24316D
:103CB00049F74FBF8091E800877F8093E8006AE270
:103CC00070E0CE0101960E94951A16C060914C02D8
:103CD00070914D02AE014F5F5F4F0E94D919BC0138
:103CE000892B09F441C09091E800977F9093E800F8
:103CF00089819A810E94F31A8091E8008B778093E2
:103D0000E80032C0803881F58091E800877F809399
:103D1000E800809143028093F1008091E8008E7763
:103D200072CF811121C080914A0290914B02992754
:103D30000297D4F48091E800877F8093E800809117
:103D40004A02809343020E94891B809143028111A1
:103D500006C08091E30087FD02C081E001C084E0DD
:103D6000809347020E94C9188091E80083FF0AC02F
:103D70008091E800877F8093E8008091EB0080626B
:103D80008093EB00AA960FB6F894DEBF0FBECDBFAE
:103D9000DF91CF911F9108950895CF9380914702AD
:103DA0008823A1F0C091E900CF709091EC00892F99
:103DB000817090FD80E8C82B1092E9008091E800A6
:103DC00083FD0E946C1DCF70C093E900CF910895D0
:103DD00097FB072E16F4009407D077FD09D00E94B8
:103DE000021F07FC05D03EF4909581959F4F0895E2
:103DF000709561957F4F0895EE0FFF1F0590F49128
:103E0000E02D0994AA1BBB1B51E107C0AA1FBB1FD1
:103E1000A617B70710F0A61BB70B881F991F5A9556
:103E2000A9F780959095BC01CD010895F999FECF31
:103E300092BD81BDF89A992780B50895A8E1B0E0B8
:103E400042E050E00C944A1F262FF999FECF92BD14
:103E500081BDF89A019700B4021639F01FBA20BD4F
:103E60000FB6F894FA9AF99A0FBE08950396272F81
:103E70000E94251F0E94241F252F0E94251F242FEA
:103E80000C94251F0196272F0E94251F0C94241F98
:103E9000DC01CB01FC01F999FECF06C0F2BDE1BD0A
:103EA000F89A319600B40D9241505040B8F70895F9
:043EB000F894FFCFB4
:103EB4002808641E140A321E16022C1889186A185F
:103EC4006618621801E200E900EA00B500B600B71E
:103ED40000CD008301CC008A0192019401210223C8
:103EE4000224022502260227022A02B300B4006F2C
:103EF400007000818283F6F597343536919293955C
:103F04009496F0F1F4F7E200E900EA00B500B60097
:103F1400B700CD008301CC008A01920194012102F3
:103F2400230224022502260227022A02B300B40037
:083F34006F0070008182830020
:00000001FF
